{
  "contracts/Marketplace.sol": {
    "Marketplace": {
      "abi": [
        {
          "inputs": [],
          "stateMutability": "nonpayable",
          "type": "constructor"
        },
        {
          "inputs": [
            {
              "internalType": "uint256",
              "name": "required",
              "type": "uint256"
            },
            {
              "internalType": "uint256",
              "name": "available",
              "type": "uint256"
            }
          ],
          "name": "ContractBalanceInsufficient",
          "type": "error"
        },
        {
          "inputs": [],
          "name": "FundTransferError",
          "type": "error"
        },
        {
          "inputs": [
            {
              "internalType": "enum CampaignStatus",
              "name": "expected",
              "type": "uint8"
            },
            {
              "internalType": "enum CampaignStatus",
              "name": "actual",
              "type": "uint8"
            }
          ],
          "name": "InvalidCampaignStatus",
          "type": "error"
        },
        {
          "inputs": [
            {
              "internalType": "address",
              "name": "owner",
              "type": "address"
            }
          ],
          "name": "OwnableInvalidOwner",
          "type": "error"
        },
        {
          "inputs": [
            {
              "internalType": "address",
              "name": "account",
              "type": "address"
            }
          ],
          "name": "OwnableUnauthorizedAccount",
          "type": "error"
        },
        {
          "inputs": [],
          "name": "ReentrancyGuardReentrantCall",
          "type": "error"
        },
        {
          "inputs": [],
          "name": "Unauthorized",
          "type": "error"
        },
        {
          "inputs": [
            {
              "internalType": "address",
              "name": "userAddress",
              "type": "address"
            }
          ],
          "name": "UserAlreadyRegistered",
          "type": "error"
        },
        {
          "inputs": [
            {
              "internalType": "address",
              "name": "userAddress",
              "type": "address"
            }
          ],
          "name": "UserNotRegistered",
          "type": "error"
        },
        {
          "anonymous": false,
          "inputs": [
            {
              "indexed": false,
              "internalType": "bytes4",
              "name": "campaignId",
              "type": "bytes4"
            }
          ],
          "name": "AcceptanceDeadlineReached",
          "type": "event"
        },
        {
          "anonymous": false,
          "inputs": [
            {
              "indexed": true,
              "internalType": "bytes4",
              "name": "campaignId",
              "type": "bytes4"
            },
            {
              "indexed": false,
              "internalType": "address",
              "name": "acceptedBy",
              "type": "address"
            }
          ],
          "name": "CampaignAccepted",
          "type": "event"
        },
        {
          "anonymous": false,
          "inputs": [
            {
              "indexed": true,
              "internalType": "bytes4",
              "name": "campaignId",
              "type": "bytes4"
            },
            {
              "indexed": false,
              "internalType": "address",
              "name": "user",
              "type": "address"
            }
          ],
          "name": "CampaignCreated",
          "type": "event"
        },
        {
          "anonymous": false,
          "inputs": [
            {
              "indexed": false,
              "internalType": "bytes4",
              "name": "campaignId",
              "type": "bytes4"
            }
          ],
          "name": "CampaignFulfilled",
          "type": "event"
        },
        {
          "anonymous": false,
          "inputs": [
            {
              "indexed": true,
              "internalType": "bytes4",
              "name": "campaignId",
              "type": "bytes4"
            },
            {
              "indexed": false,
              "internalType": "address",
              "name": "updatedBy",
              "type": "address"
            }
          ],
          "name": "CampaignUpdated",
          "type": "event"
        },
        {
          "anonymous": false,
          "inputs": [],
          "name": "FundWithdrawalSuccessful",
          "type": "event"
        },
        {
          "anonymous": false,
          "inputs": [
            {
              "indexed": true,
              "internalType": "address",
              "name": "previousOwner",
              "type": "address"
            },
            {
              "indexed": true,
              "internalType": "address",
              "name": "newOwner",
              "type": "address"
            }
          ],
          "name": "OwnershipTransferred",
          "type": "event"
        },
        {
          "anonymous": false,
          "inputs": [
            {
              "indexed": false,
              "internalType": "uint256",
              "name": "previousFees",
              "type": "uint256"
            },
            {
              "indexed": false,
              "internalType": "uint256",
              "name": "updatedFees",
              "type": "uint256"
            }
          ],
          "name": "PlatformFeesUpdated",
          "type": "event"
        },
        {
          "anonymous": false,
          "inputs": [
            {
              "indexed": false,
              "internalType": "bytes4",
              "name": "campaignId",
              "type": "bytes4"
            }
          ],
          "name": "ProjectPaymentReturned",
          "type": "event"
        },
        {
          "anonymous": false,
          "inputs": [
            {
              "indexed": true,
              "internalType": "address",
              "name": "userAddress",
              "type": "address"
            }
          ],
          "name": "UserCreated",
          "type": "event"
        },
        {
          "inputs": [
            {
              "internalType": "uint256",
              "name": "campaignIdDb",
              "type": "uint256"
            }
          ],
          "name": "acceptProjectCampaign",
          "outputs": [],
          "stateMutability": "nonpayable",
          "type": "function"
        },
        {
          "inputs": [
            {
              "internalType": "uint256",
              "name": "",
              "type": "uint256"
            }
          ],
          "name": "allUsers",
          "outputs": [
            {
              "internalType": "address",
              "name": "",
              "type": "address"
            }
          ],
          "stateMutability": "view",
          "type": "function"
        },
        {
          "inputs": [],
          "name": "baseUsdcAddress",
          "outputs": [
            {
              "internalType": "address",
              "name": "",
              "type": "address"
            }
          ],
          "stateMutability": "view",
          "type": "function"
        },
        {
          "inputs": [],
          "name": "baseUsdcDecimals",
          "outputs": [
            {
              "internalType": "uint256",
              "name": "",
              "type": "uint256"
            }
          ],
          "stateMutability": "view",
          "type": "function"
        },
        {
          "inputs": [
            {
              "internalType": "address",
              "name": "selectedKol",
              "type": "address"
            },
            {
              "internalType": "uint256",
              "name": "offeringAmount",
              "type": "uint256"
            },
            {
              "internalType": "uint256",
              "name": "promotionEndsIn",
              "type": "uint256"
            },
            {
              "internalType": "uint256",
              "name": "offerEndsIn",
              "type": "uint256"
            },
            {
              "internalType": "uint256",
              "name": "idInDB",
              "type": "uint256"
            }
          ],
          "name": "createNewCampaign",
          "outputs": [],
          "stateMutability": "nonpayable",
          "type": "function"
        },
        {
          "inputs": [
            {
              "internalType": "uint256",
              "name": "idInDB",
              "type": "uint256"
            }
          ],
          "name": "discardCampaign",
          "outputs": [],
          "stateMutability": "nonpayable",
          "type": "function"
        },
        {
          "inputs": [],
          "name": "divider",
          "outputs": [
            {
              "internalType": "uint256",
              "name": "",
              "type": "uint256"
            }
          ],
          "stateMutability": "view",
          "type": "function"
        },
        {
          "inputs": [
            {
              "internalType": "uint256",
              "name": "campaignIdDB",
              "type": "uint256"
            }
          ],
          "name": "fulfilProjectCampaign",
          "outputs": [],
          "stateMutability": "nonpayable",
          "type": "function"
        },
        {
          "inputs": [],
          "name": "getAllCampaigns",
          "outputs": [
            {
              "internalType": "bytes4[]",
              "name": "",
              "type": "bytes4[]"
            }
          ],
          "stateMutability": "view",
          "type": "function"
        },
        {
          "inputs": [],
          "name": "getAllUsers",
          "outputs": [
            {
              "internalType": "address[]",
              "name": "",
              "type": "address[]"
            }
          ],
          "stateMutability": "view",
          "type": "function"
        },
        {
          "inputs": [
            {
              "internalType": "uint256",
              "name": "idInDB",
              "type": "uint256"
            }
          ],
          "name": "getCampaignInfo",
          "outputs": [
            {
              "components": [
                {
                  "internalType": "bytes4",
                  "name": "id",
                  "type": "bytes4"
                },
                {
                  "internalType": "uint256",
                  "name": "createdAt",
                  "type": "uint256"
                },
                {
                  "internalType": "address",
                  "name": "creatorAddress",
                  "type": "address"
                },
                {
                  "internalType": "address",
                  "name": "selectedKol",
                  "type": "address"
                },
                {
                  "internalType": "uint256",
                  "name": "offerEndsIn",
                  "type": "uint256"
                },
                {
                  "internalType": "uint256",
                  "name": "promotionEndsIn",
                  "type": "uint256"
                },
                {
                  "internalType": "uint256",
                  "name": "amountOffered",
                  "type": "uint256"
                },
                {
                  "internalType": "enum CampaignStatus",
                  "name": "campaignStatus",
                  "type": "uint8"
                }
              ],
              "internalType": "struct Campaign",
              "name": "",
              "type": "tuple"
            }
          ],
          "stateMutability": "view",
          "type": "function"
        },
        {
          "inputs": [
            {
              "internalType": "address",
              "name": "userAddress",
              "type": "address"
            }
          ],
          "name": "getUserCampaigns",
          "outputs": [
            {
              "internalType": "bytes4[]",
              "name": "",
              "type": "bytes4[]"
            }
          ],
          "stateMutability": "view",
          "type": "function"
        },
        {
          "inputs": [],
          "name": "owner",
          "outputs": [
            {
              "internalType": "address",
              "name": "",
              "type": "address"
            }
          ],
          "stateMutability": "view",
          "type": "function"
        },
        {
          "inputs": [],
          "name": "platformFeesPercentage",
          "outputs": [
            {
              "internalType": "uint256",
              "name": "",
              "type": "uint256"
            }
          ],
          "stateMutability": "view",
          "type": "function"
        },
        {
          "inputs": [],
          "name": "register",
          "outputs": [],
          "stateMutability": "nonpayable",
          "type": "function"
        },
        {
          "inputs": [],
          "name": "renounceOwnership",
          "outputs": [],
          "stateMutability": "nonpayable",
          "type": "function"
        },
        {
          "inputs": [
            {
              "internalType": "address",
              "name": "newOwner",
              "type": "address"
            }
          ],
          "name": "transferOwnership",
          "outputs": [],
          "stateMutability": "nonpayable",
          "type": "function"
        },
        {
          "inputs": [
            {
              "internalType": "uint256",
              "name": "idInDB",
              "type": "uint256"
            },
            {
              "internalType": "address",
              "name": "selectedKol",
              "type": "address"
            },
            {
              "internalType": "uint256",
              "name": "promotionEndsIn",
              "type": "uint256"
            },
            {
              "internalType": "uint256",
              "name": "offerEndsIn",
              "type": "uint256"
            },
            {
              "internalType": "uint256",
              "name": "newAmountOffered",
              "type": "uint256"
            }
          ],
          "name": "updateCampaign",
          "outputs": [],
          "stateMutability": "nonpayable",
          "type": "function"
        },
        {
          "inputs": [
            {
              "internalType": "uint256",
              "name": "newFees",
              "type": "uint256"
            }
          ],
          "name": "updatePlatformFees",
          "outputs": [],
          "stateMutability": "nonpayable",
          "type": "function"
        },
        {
          "inputs": [],
          "name": "withdrawUsdc",
          "outputs": [],
          "stateMutability": "nonpayable",
          "type": "function"
        }
      ],
      "evm": {
        "bytecode": {
          "linkReferences": {},
          "object": "60c060405273833589fcd6edb6e08f4c7c32d4f71b54bda0291373ffffffffffffffffffffffffffffffffffffffff1660809073ffffffffffffffffffffffffffffffffffffffff16815250600660a09081525034801561005f57600080fd5b5033600073ffffffffffffffffffffffffffffffffffffffff168173ffffffffffffffffffffffffffffffffffffffff16036100d35760006040517f1e4fbdf70000000000000000000000000000000000000000000000000000000081526004016100ca91906101fd565b60405180910390fd5b6100e2816100f860201b60201c565b5060018081905550612710600281905550610218565b60008060009054906101000a900473ffffffffffffffffffffffffffffffffffffffff169050816000806101000a81548173ffffffffffffffffffffffffffffffffffffffff021916908373ffffffffffffffffffffffffffffffffffffffff1602179055508173ffffffffffffffffffffffffffffffffffffffff168173ffffffffffffffffffffffffffffffffffffffff167f8be0079c531659141344cd1fd0a4f28419497f9722a3daafe3b4186f6b6457e060405160405180910390a35050565b600073ffffffffffffffffffffffffffffffffffffffff82169050919050565b60006101e7826101bc565b9050919050565b6101f7816101dc565b82525050565b600060208201905061021260008301846101ee565b92915050565b60805160a051612a5461026060003960006112ae015260008181610a6f01528181610c01015281816110f8015281816112760152818161142a0152611d350152612a546000f3fe608060405234801561001057600080fd5b506004361061012c5760003560e01c8063961562f1116100ad578063e2842d7911610071578063e2842d79146102e5578063e38e2b8214610303578063e8136a5114610333578063f2fde38b1461034f578063fee84d4e1461036b5761012c565b8063961562f11461022f578063a1e5084c1461024b578063a2bdedf41461027b578063ab47addf146102ab578063b37df594146102c75761012c565b806369f5352b116100f457806369f5352b146101ad578063715018a6146101cb57806378e4f37c146101d557806386cdf604146101f35780638da5cb5b146102115761012c565b80630b03e44a146101315780631aa3a0081461014d5780631d29894414610157578063378efa3714610173578063622527b714610191575b600080fd5b61014b60048036038101906101469190612176565b610375565b005b610155610793565b005b610171600480360381019061016c91906121f1565b610922565b005b61017b610e0a565b604051610188919061222d565b60405180910390f35b6101ab60048036038101906101a69190612248565b610e11565b005b6101b5611274565b6040516101c291906122d2565b60405180910390f35b6101d3611298565b005b6101dd6112ac565b6040516101ea919061222d565b60405180910390f35b6101fb6112d0565b60405161020891906123d7565b60405180910390f35b61021961136a565b60405161022691906122d2565b60405180910390f35b610249600480360381019061024491906121f1565b611393565b005b610265600480360381019061026091906123f9565b611707565b60405161027291906123d7565b60405180910390f35b610295600480360381019061029091906121f1565b6117e0565b6040516102a291906122d2565b60405180910390f35b6102c560048036038101906102c091906121f1565b61181f565b005b6102cf6119c0565b6040516102dc919061222d565b60405180910390f35b6102ed6119c6565b6040516102fa91906124e4565b60405180910390f35b61031d600480360381019061031891906121f1565b611a54565b60405161032a919061262e565b60405180910390f35b61034d600480360381019061034891906121f1565b611c50565b005b610369600480360381019061036491906123f9565b611ca3565b005b610373611d29565b005b600560003373ffffffffffffffffffffffffffffffffffffffff1673ffffffffffffffffffffffffffffffffffffffff16815260200190815260200160002060009054906101000a900460ff1661040357336040517fae2730ca0000000000000000000000000000000000000000000000000000000081526004016103fa91906122d2565b60405180910390fd5b6000334260405160200161041892919061270a565b604051602081830303815290604052805190602001209050806003600084815260200190815260200160002060006101000a81548163ffffffff021916908360e01c021790555060004290506000604051806101000160405280847bffffffffffffffffffffffffffffffffffffffffffffffffffffffff191681526020018381526020013373ffffffffffffffffffffffffffffffffffffffff1681526020018973ffffffffffffffffffffffffffffffffffffffff168152602001868152602001878152602001888152602001600060048111156104fb576104fa612515565b5b81525090508060086000857bffffffffffffffffffffffffffffffffffffffffffffffffffffffff19167bffffffffffffffffffffffffffffffffffffffffffffffffffffffff1916815260200190815260200160002060008201518160000160006101000a81548163ffffffff021916908360e01c02179055506020820151816001015560408201518160020160006101000a81548173ffffffffffffffffffffffffffffffffffffffff021916908373ffffffffffffffffffffffffffffffffffffffff16021790555060608201518160030160006101000a81548173ffffffffffffffffffffffffffffffffffffffff021916908373ffffffffffffffffffffffffffffffffffffffff1602179055506080820151816004015560a0820151816005015560c0820151816006015560e08201518160070160006101000a81548160ff0219169083600481111561065757610656612515565b5b021790555090505060068390806001815401808255809150506001900390600052602060002090600891828204019190066004029091909190916101000a81548163ffffffff021916908360e01c0217905550600760003373ffffffffffffffffffffffffffffffffffffffff1673ffffffffffffffffffffffffffffffffffffffff1681526020019081526020016000208390806001815401808255809150506001900390600052602060002090600891828204019190066004029091909190916101000a81548163ffffffff021916908360e01c0217905550827bffffffffffffffffffffffffffffffffffffffffffffffffffffffff19167fe41d37ea58ed0203f8476bf3621dbbab9e570a47e5d70e070d77fff130bad3d73360405161078191906122d2565b60405180910390a25050505050505050565b600560003373ffffffffffffffffffffffffffffffffffffffff1673ffffffffffffffffffffffffffffffffffffffff16815260200190815260200160002060009054906101000a900460ff161561082257336040517f9e676ee700000000000000000000000000000000000000000000000000000000815260040161081991906122d2565b60405180910390fd5b6001600560003373ffffffffffffffffffffffffffffffffffffffff1673ffffffffffffffffffffffffffffffffffffffff16815260200190815260200160002060006101000a81548160ff0219169083151502179055506004339080600181540180825580915050600190039060005260206000200160009091909190916101000a81548173ffffffffffffffffffffffffffffffffffffffff021916908373ffffffffffffffffffffffffffffffffffffffff1602179055503373ffffffffffffffffffffffffffffffffffffffff167f0b0376a109cbb578b709f85f6a7befcdac3ac1ab251c99ede87f30c9572ac4d360405160405180910390a2565b61092a611e99565b60006003600083815260200190815260200160002060009054906101000a900460e01b9050600060086000837bffffffffffffffffffffffffffffffffffffffffffffffffffffffff19167bffffffffffffffffffffffffffffffffffffffffffffffffffffffff191681526020019081526020016000209050600160048111156109b8576109b7612515565b5b8160070160009054906101000a900460ff1660048111156109dc576109db612515565b5b14610a325760018160070160009054906101000a900460ff166040517f1e8a8fcc000000000000000000000000000000000000000000000000000000008152600401610a29929190612750565b60405180910390fd5b6000816006015490506000620186a060025483610a4f91906127a8565b610a599190612819565b905060008183610a69919061284a565b905060007f00000000000000000000000000000000000000000000000000000000000000009050818173ffffffffffffffffffffffffffffffffffffffff166370a08231306040518263ffffffff1660e01b8152600401610aca91906122d2565b602060405180830381865afa158015610ae7573d6000803e3d6000fd5b505050506040513d601f19601f82011682018060405250810190610b0b9190612893565b1015610bd057818173ffffffffffffffffffffffffffffffffffffffff166370a08231610b3661136a565b6040518263ffffffff1660e01b8152600401610b5291906122d2565b602060405180830381865afa158015610b6f573d6000803e3d6000fd5b505050506040513d601f19601f82011682018060405250810190610b939190612893565b6040517faa1f42bd000000000000000000000000000000000000000000000000000000008152600401610bc79291906128c0565b60405180910390fd5b60028560070160006101000a81548160ff02191690836004811115610bf857610bf7612515565b5b021790555060007f0000000000000000000000000000000000000000000000000000000000000000905060008173ffffffffffffffffffffffffffffffffffffffff1663a9059cbb8860030160009054906101000a900473ffffffffffffffffffffffffffffffffffffffff16866040518363ffffffff1660e01b8152600401610c839291906128e9565b6020604051808303816000875af1158015610ca2573d6000803e3d6000fd5b505050506040513d601f19601f82011682018060405250810190610cc6919061294a565b905080610cff576040517f0f9310f900000000000000000000000000000000000000000000000000000000815260040160405180910390fd5b60008273ffffffffffffffffffffffffffffffffffffffff1663a9059cbb610d2561136a565b886040518363ffffffff1660e01b8152600401610d439291906128e9565b6020604051808303816000875af1158015610d62573d6000803e3d6000fd5b505050506040513d601f19601f82011682018060405250810190610d86919061294a565b905080610dbf576040517f0f9310f900000000000000000000000000000000000000000000000000000000815260040160405180910390fd5b7fd7d080f34f62be028407df1c24ad247902199ace5d02d8faa13f5636809d0c7c89604051610dee9190612986565b60405180910390a1505050505050505050610e07611edf565b50565b620186a081565b600560003373ffffffffffffffffffffffffffffffffffffffff1673ffffffffffffffffffffffffffffffffffffffff16815260200190815260200160002060009054906101000a900460ff16610e9f57336040517fae2730ca000000000000000000000000000000000000000000000000000000008152600401610e9691906122d2565b60405180910390fd5b60006003600087815260200190815260200160002060009054906101000a900460e01b9050600073ffffffffffffffffffffffffffffffffffffffff168573ffffffffffffffffffffffffffffffffffffffff1603610f33576040517f08c379a0000000000000000000000000000000000000000000000000000000008152600401610f2a906129fe565b60405180910390fd5b600060086000837bffffffffffffffffffffffffffffffffffffffffffffffffffffffff19167bffffffffffffffffffffffffffffffffffffffffffffffffffffffff19168152602001908152602001600020905060006004811115610f9c57610f9b612515565b5b8160070160009054906101000a900460ff166004811115610fc057610fbf612515565b5b146110165760008160070160009054906101000a900460ff166040517f1e8a8fcc00000000000000000000000000000000000000000000000000000000815260040161100d929190612750565b60405180910390fd5b3373ffffffffffffffffffffffffffffffffffffffff168160020160009054906101000a900473ffffffffffffffffffffffffffffffffffffffff1673ffffffffffffffffffffffffffffffffffffffff161461109f576040517f82b4290000000000000000000000000000000000000000000000000000000000815260040160405180910390fd5b858160030160006101000a81548173ffffffffffffffffffffffffffffffffffffffff021916908373ffffffffffffffffffffffffffffffffffffffff16021790555084816005018190555083816004018190555060007f0000000000000000000000000000000000000000000000000000000000000000905083826006015411156112135760008173ffffffffffffffffffffffffffffffffffffffff1663a9059cbb8460020160009054906101000a900473ffffffffffffffffffffffffffffffffffffffff16878660060154611178919061284a565b6040518363ffffffff1660e01b81526004016111959291906128e9565b6020604051808303816000875af11580156111b4573d6000803e3d6000fd5b505050506040513d601f19601f820116820180604052508101906111d8919061294a565b905080611211576040517f0f9310f900000000000000000000000000000000000000000000000000000000815260040160405180910390fd5b505b827bffffffffffffffffffffffffffffffffffffffffffffffffffffffff19167f3143324469716ea7cb6b9bc9bbe9af85e40758d7148f12663616614052a9f7b93360405161126291906122d2565b60405180910390a25050505050505050565b7f000000000000000000000000000000000000000000000000000000000000000081565b6112a0611ee8565b6112aa6000611f6f565b565b7f000000000000000000000000000000000000000000000000000000000000000081565b6060600680548060200260200160405190810160405280929190818152602001828054801561136057602002820191906000526020600020906000905b82829054906101000a900460e01b7bffffffffffffffffffffffffffffffffffffffffffffffffffffffff19168152602001906004019060208260030104928301926001038202915080841161130d5790505b5050505050905090565b60008060009054906101000a900473ffffffffffffffffffffffffffffffffffffffff16905090565b61139b611ee8565b6113a3611e99565b60006003600083815260200190815260200160002060009054906101000a900460e01b9050600060086000837bffffffffffffffffffffffffffffffffffffffffffffffffffffffff19167bffffffffffffffffffffffffffffffffffffffffffffffffffffffff19168152602001908152602001600020905060008160060154905060007f00000000000000000000000000000000000000000000000000000000000000009050818173ffffffffffffffffffffffffffffffffffffffff166370a0823161147061136a565b6040518263ffffffff1660e01b815260040161148c91906122d2565b602060405180830381865afa1580156114a9573d6000803e3d6000fd5b505050506040513d601f19601f820116820180604052508101906114cd9190612893565b101561159257818173ffffffffffffffffffffffffffffffffffffffff166370a082316114f861136a565b6040518263ffffffff1660e01b815260040161151491906122d2565b602060405180830381865afa158015611531573d6000803e3d6000fd5b505050506040513d601f19601f820116820180604052508101906115559190612893565b6040517faa1f42bd0000000000000000000000000000000000000000000000000000000081526004016115899291906128c0565b60405180910390fd5b60048360070160006101000a81548160ff021916908360048111156115ba576115b9612515565b5b021790555060008173ffffffffffffffffffffffffffffffffffffffff1663a9059cbb8560020160009054906101000a900473ffffffffffffffffffffffffffffffffffffffff1686600601546040518363ffffffff1660e01b81526004016116249291906128e9565b6020604051808303816000875af1158015611643573d6000803e3d6000fd5b505050506040513d601f19601f82011682018060405250810190611667919061294a565b9050806116a0576040517f0f9310f900000000000000000000000000000000000000000000000000000000815260040160405180910390fd5b847bffffffffffffffffffffffffffffffffffffffffffffffffffffffff19167f3143324469716ea7cb6b9bc9bbe9af85e40758d7148f12663616614052a9f7b9336040516116ef91906122d2565b60405180910390a25050505050611704611edf565b50565b6060600760008373ffffffffffffffffffffffffffffffffffffffff1673ffffffffffffffffffffffffffffffffffffffff1681526020019081526020016000208054806020026020016040519081016040528092919081815260200182805480156117d457602002820191906000526020600020906000905b82829054906101000a900460e01b7bffffffffffffffffffffffffffffffffffffffffffffffffffffffff1916815260200190600401906020826003010492830192600103820291508084116117815790505b50505050509050919050565b600481815481106117f057600080fd5b906000526020600020016000915054906101000a900473ffffffffffffffffffffffffffffffffffffffff1681565b611827611e99565b60006003600083815260200190815260200160002060009054906101000a900460e01b9050600060086000837bffffffffffffffffffffffffffffffffffffffffffffffffffffffff19167bffffffffffffffffffffffffffffffffffffffffffffffffffffffff191681526020019081526020016000209050600060048111156118b5576118b4612515565b5b8160070160009054906101000a900460ff1660048111156118d9576118d8612515565b5b1461192f5760008160070160009054906101000a900460ff166040517f1e8a8fcc000000000000000000000000000000000000000000000000000000008152600401611926929190612750565b60405180910390fd5b60018160070160006101000a81548160ff0219169083600481111561195757611956612515565b5b0217905550817bffffffffffffffffffffffffffffffffffffffffffffffffffffffff19167fe5cf44d72a8814a2030733c88ec446bde46fb067f7719357623edbcd901a28f4336040516119ab91906122d2565b60405180910390a250506119bd611edf565b50565b60025481565b60606004805480602002602001604051908101604052809291908181526020018280548015611a4a57602002820191906000526020600020905b8160009054906101000a900473ffffffffffffffffffffffffffffffffffffffff1673ffffffffffffffffffffffffffffffffffffffff1681526020019060010190808311611a00575b5050505050905090565b611a5c61203b565b60006003600084815260200190815260200160002060009054906101000a900460e01b9050600060086000837bffffffffffffffffffffffffffffffffffffffffffffffffffffffff19167bffffffffffffffffffffffffffffffffffffffffffffffffffffffff19168152602001908152602001600020604051806101000160405290816000820160009054906101000a900460e01b7bffffffffffffffffffffffffffffffffffffffffffffffffffffffff19167bffffffffffffffffffffffffffffffffffffffffffffffffffffffff19168152602001600182015481526020016002820160009054906101000a900473ffffffffffffffffffffffffffffffffffffffff1673ffffffffffffffffffffffffffffffffffffffff1673ffffffffffffffffffffffffffffffffffffffff1681526020016003820160009054906101000a900473ffffffffffffffffffffffffffffffffffffffff1673ffffffffffffffffffffffffffffffffffffffff1673ffffffffffffffffffffffffffffffffffffffff1681526020016004820154815260200160058201548152602001600682015481526020016007820160009054906101000a900460ff166004811115611c2e57611c2d612515565b5b6004811115611c4057611c3f612515565b5b8152505090508092505050919050565b611c58611ee8565b60006002549050816002819055507fd8e832f816c1cbad9f319fc8017ca9d81476c84945de3610a3cf813538f737518183604051611c979291906128c0565b60405180910390a15050565b611cab611ee8565b600073ffffffffffffffffffffffffffffffffffffffff168173ffffffffffffffffffffffffffffffffffffffff1603611d1d5760006040517f1e4fbdf7000000000000000000000000000000000000000000000000000000008152600401611d1491906122d2565b60405180910390fd5b611d2681611f6f565b50565b611d31611ee8565b60007f0000000000000000000000000000000000000000000000000000000000000000905060008173ffffffffffffffffffffffffffffffffffffffff166370a08231306040518263ffffffff1660e01b8152600401611d9191906122d2565b602060405180830381865afa158015611dae573d6000803e3d6000fd5b505050506040513d601f19601f82011682018060405250810190611dd29190612893565b905060008273ffffffffffffffffffffffffffffffffffffffff1663a9059cbb611dfa61136a565b846040518363ffffffff1660e01b8152600401611e189291906128e9565b6020604051808303816000875af1158015611e37573d6000803e3d6000fd5b505050506040513d601f19601f82011682018060405250810190611e5b919061294a565b905080611e94576040517f0f9310f900000000000000000000000000000000000000000000000000000000815260040160405180910390fd5b505050565b600260015403611ed5576040517f3ee5aeb500000000000000000000000000000000000000000000000000000000815260040160405180910390fd5b6002600181905550565b60018081905550565b611ef0612033565b73ffffffffffffffffffffffffffffffffffffffff16611f0e61136a565b73ffffffffffffffffffffffffffffffffffffffff1614611f6d57611f31612033565b6040517f118cdaa7000000000000000000000000000000000000000000000000000000008152600401611f6491906122d2565b60405180910390fd5b565b60008060009054906101000a900473ffffffffffffffffffffffffffffffffffffffff169050816000806101000a81548173ffffffffffffffffffffffffffffffffffffffff021916908373ffffffffffffffffffffffffffffffffffffffff1602179055508173ffffffffffffffffffffffffffffffffffffffff168173ffffffffffffffffffffffffffffffffffffffff167f8be0079c531659141344cd1fd0a4f28419497f9722a3daafe3b4186f6b6457e060405160405180910390a35050565b600033905090565b60405180610100016040528060007bffffffffffffffffffffffffffffffffffffffffffffffffffffffff1916815260200160008152602001600073ffffffffffffffffffffffffffffffffffffffff168152602001600073ffffffffffffffffffffffffffffffffffffffff168152602001600081526020016000815260200160008152602001600060048111156120d7576120d6612515565b5b81525090565b600080fd5b600073ffffffffffffffffffffffffffffffffffffffff82169050919050565b600061210d826120e2565b9050919050565b61211d81612102565b811461212857600080fd5b50565b60008135905061213a81612114565b92915050565b6000819050919050565b61215381612140565b811461215e57600080fd5b50565b6000813590506121708161214a565b92915050565b600080600080600060a08688031215612192576121916120dd565b5b60006121a08882890161212b565b95505060206121b188828901612161565b94505060406121c288828901612161565b93505060606121d388828901612161565b92505060806121e488828901612161565b9150509295509295909350565b600060208284031215612207576122066120dd565b5b600061221584828501612161565b91505092915050565b61222781612140565b82525050565b6000602082019050612242600083018461221e565b92915050565b600080600080600060a08688031215612264576122636120dd565b5b600061227288828901612161565b95505060206122838882890161212b565b945050604061229488828901612161565b93505060606122a588828901612161565b92505060806122b688828901612161565b9150509295509295909350565b6122cc81612102565b82525050565b60006020820190506122e760008301846122c3565b92915050565b600081519050919050565b600082825260208201905092915050565b6000819050602082019050919050565b60007fffffffff0000000000000000000000000000000000000000000000000000000082169050919050565b61234e81612319565b82525050565b60006123608383612345565b60208301905092915050565b6000602082019050919050565b6000612384826122ed565b61238e81856122f8565b935061239983612309565b8060005b838110156123ca5781516123b18882612354565b97506123bc8361236c565b92505060018101905061239d565b5085935050505092915050565b600060208201905081810360008301526123f18184612379565b905092915050565b60006020828403121561240f5761240e6120dd565b5b600061241d8482850161212b565b91505092915050565b600081519050919050565b600082825260208201905092915050565b6000819050602082019050919050565b61245b81612102565b82525050565b600061246d8383612452565b60208301905092915050565b6000602082019050919050565b600061249182612426565b61249b8185612431565b93506124a683612442565b8060005b838110156124d75781516124be8882612461565b97506124c983612479565b9250506001810190506124aa565b5085935050505092915050565b600060208201905081810360008301526124fe8184612486565b905092915050565b61250f81612140565b82525050565b7f4e487b7100000000000000000000000000000000000000000000000000000000600052602160045260246000fd5b6005811061255557612554612515565b5b50565b600081905061256682612544565b919050565b600061257682612558565b9050919050565b6125868161256b565b82525050565b610100820160008201516125a36000850182612345565b5060208201516125b66020850182612506565b5060408201516125c96040850182612452565b5060608201516125dc6060850182612452565b5060808201516125ef6080850182612506565b5060a082015161260260a0850182612506565b5060c082015161261560c0850182612506565b5060e082015161262860e085018261257d565b50505050565b600061010082019050612644600083018461258c565b92915050565b60008160601b9050919050565b60006126628261264a565b9050919050565b600061267482612657565b9050919050565b61268c61268782612102565b612669565b82525050565b600081905092915050565b7f4352454154455f43414d504149474e0000000000000000000000000000000000600082015250565b60006126d3600f83612692565b91506126de8261269d565b600f82019050919050565b6000819050919050565b6127046126ff82612140565b6126e9565b82525050565b6000612716828561267b565b601482019150612725826126c6565b915061273182846126f3565b6020820191508190509392505050565b61274a8161256b565b82525050565b60006040820190506127656000830185612741565b6127726020830184612741565b9392505050565b7f4e487b7100000000000000000000000000000000000000000000000000000000600052601160045260246000fd5b60006127b382612140565b91506127be83612140565b92508282026127cc81612140565b915082820484148315176127e3576127e2612779565b5b5092915050565b7f4e487b7100000000000000000000000000000000000000000000000000000000600052601260045260246000fd5b600061282482612140565b915061282f83612140565b92508261283f5761283e6127ea565b5b828204905092915050565b600061285582612140565b915061286083612140565b925082820390508181111561287857612877612779565b5b92915050565b60008151905061288d8161214a565b92915050565b6000602082840312156128a9576128a86120dd565b5b60006128b78482850161287e565b91505092915050565b60006040820190506128d5600083018561221e565b6128e2602083018461221e565b9392505050565b60006040820190506128fe60008301856122c3565b61290b602083018461221e565b9392505050565b60008115159050919050565b61292781612912565b811461293257600080fd5b50565b6000815190506129448161291e565b92915050565b6000602082840312156129605761295f6120dd565b5b600061296e84828501612935565b91505092915050565b61298081612319565b82525050565b600060208201905061299b6000830184612977565b92915050565b600082825260208201905092915050565b7f496e76616c6964204b4f4c206164647265737300000000000000000000000000600082015250565b60006129e86013836129a1565b91506129f3826129b2565b602082019050919050565b60006020820190508181036000830152612a17816129db565b905091905056fea26469706673582212206ca589b3883db2700cdedce665286832d748900bdfe9526079fd7479bc95ff4364736f6c634300081a0033",
          "opcodes": "PUSH1 0xC0 PUSH1 0x40 MSTORE PUSH20 0x833589FCD6EDB6E08F4C7C32D4F71B54BDA02913 PUSH20 0xFFFFFFFFFFFFFFFFFFFFFFFFFFFFFFFFFFFFFFFF AND PUSH1 0x80 SWAP1 PUSH20 0xFFFFFFFFFFFFFFFFFFFFFFFFFFFFFFFFFFFFFFFF AND DUP2 MSTORE POP PUSH1 0x6 PUSH1 0xA0 SWAP1 DUP2 MSTORE POP CALLVALUE DUP1 ISZERO PUSH2 0x5F JUMPI PUSH1 0x0 DUP1 REVERT JUMPDEST POP CALLER PUSH1 0x0 PUSH20 0xFFFFFFFFFFFFFFFFFFFFFFFFFFFFFFFFFFFFFFFF AND DUP2 PUSH20 0xFFFFFFFFFFFFFFFFFFFFFFFFFFFFFFFFFFFFFFFF AND SUB PUSH2 0xD3 JUMPI PUSH1 0x0 PUSH1 0x40 MLOAD PUSH32 0x1E4FBDF700000000000000000000000000000000000000000000000000000000 DUP2 MSTORE PUSH1 0x4 ADD PUSH2 0xCA SWAP2 SWAP1 PUSH2 0x1FD JUMP JUMPDEST PUSH1 0x40 MLOAD DUP1 SWAP2 SUB SWAP1 REVERT JUMPDEST PUSH2 0xE2 DUP2 PUSH2 0xF8 PUSH1 0x20 SHL PUSH1 0x20 SHR JUMP JUMPDEST POP PUSH1 0x1 DUP1 DUP2 SWAP1 SSTORE POP PUSH2 0x2710 PUSH1 0x2 DUP2 SWAP1 SSTORE POP PUSH2 0x218 JUMP JUMPDEST PUSH1 0x0 DUP1 PUSH1 0x0 SWAP1 SLOAD SWAP1 PUSH2 0x100 EXP SWAP1 DIV PUSH20 0xFFFFFFFFFFFFFFFFFFFFFFFFFFFFFFFFFFFFFFFF AND SWAP1 POP DUP2 PUSH1 0x0 DUP1 PUSH2 0x100 EXP DUP2 SLOAD DUP2 PUSH20 0xFFFFFFFFFFFFFFFFFFFFFFFFFFFFFFFFFFFFFFFF MUL NOT AND SWAP1 DUP4 PUSH20 0xFFFFFFFFFFFFFFFFFFFFFFFFFFFFFFFFFFFFFFFF AND MUL OR SWAP1 SSTORE POP DUP2 PUSH20 0xFFFFFFFFFFFFFFFFFFFFFFFFFFFFFFFFFFFFFFFF AND DUP2 PUSH20 0xFFFFFFFFFFFFFFFFFFFFFFFFFFFFFFFFFFFFFFFF AND PUSH32 0x8BE0079C531659141344CD1FD0A4F28419497F9722A3DAAFE3B4186F6B6457E0 PUSH1 0x40 MLOAD PUSH1 0x40 MLOAD DUP1 SWAP2 SUB SWAP1 LOG3 POP POP JUMP JUMPDEST PUSH1 0x0 PUSH20 0xFFFFFFFFFFFFFFFFFFFFFFFFFFFFFFFFFFFFFFFF DUP3 AND SWAP1 POP SWAP2 SWAP1 POP JUMP JUMPDEST PUSH1 0x0 PUSH2 0x1E7 DUP3 PUSH2 0x1BC JUMP JUMPDEST SWAP1 POP SWAP2 SWAP1 POP JUMP JUMPDEST PUSH2 0x1F7 DUP2 PUSH2 0x1DC JUMP JUMPDEST DUP3 MSTORE POP POP JUMP JUMPDEST PUSH1 0x0 PUSH1 0x20 DUP3 ADD SWAP1 POP PUSH2 0x212 PUSH1 0x0 DUP4 ADD DUP5 PUSH2 0x1EE JUMP JUMPDEST SWAP3 SWAP2 POP POP JUMP JUMPDEST PUSH1 0x80 MLOAD PUSH1 0xA0 MLOAD PUSH2 0x2A54 PUSH2 0x260 PUSH1 0x0 CODECOPY PUSH1 0x0 PUSH2 0x12AE ADD MSTORE PUSH1 0x0 DUP2 DUP2 PUSH2 0xA6F ADD MSTORE DUP2 DUP2 PUSH2 0xC01 ADD MSTORE DUP2 DUP2 PUSH2 0x10F8 ADD MSTORE DUP2 DUP2 PUSH2 0x1276 ADD MSTORE DUP2 DUP2 PUSH2 0x142A ADD MSTORE PUSH2 0x1D35 ADD MSTORE PUSH2 0x2A54 PUSH1 0x0 RETURN INVALID PUSH1 0x80 PUSH1 0x40 MSTORE CALLVALUE DUP1 ISZERO PUSH2 0x10 JUMPI PUSH1 0x0 DUP1 REVERT JUMPDEST POP PUSH1 0x4 CALLDATASIZE LT PUSH2 0x12C JUMPI PUSH1 0x0 CALLDATALOAD PUSH1 0xE0 SHR DUP1 PUSH4 0x961562F1 GT PUSH2 0xAD JUMPI DUP1 PUSH4 0xE2842D79 GT PUSH2 0x71 JUMPI DUP1 PUSH4 0xE2842D79 EQ PUSH2 0x2E5 JUMPI DUP1 PUSH4 0xE38E2B82 EQ PUSH2 0x303 JUMPI DUP1 PUSH4 0xE8136A51 EQ PUSH2 0x333 JUMPI DUP1 PUSH4 0xF2FDE38B EQ PUSH2 0x34F JUMPI DUP1 PUSH4 0xFEE84D4E EQ PUSH2 0x36B JUMPI PUSH2 0x12C JUMP JUMPDEST DUP1 PUSH4 0x961562F1 EQ PUSH2 0x22F JUMPI DUP1 PUSH4 0xA1E5084C EQ PUSH2 0x24B JUMPI DUP1 PUSH4 0xA2BDEDF4 EQ PUSH2 0x27B JUMPI DUP1 PUSH4 0xAB47ADDF EQ PUSH2 0x2AB JUMPI DUP1 PUSH4 0xB37DF594 EQ PUSH2 0x2C7 JUMPI PUSH2 0x12C JUMP JUMPDEST DUP1 PUSH4 0x69F5352B GT PUSH2 0xF4 JUMPI DUP1 PUSH4 0x69F5352B EQ PUSH2 0x1AD JUMPI DUP1 PUSH4 0x715018A6 EQ PUSH2 0x1CB JUMPI DUP1 PUSH4 0x78E4F37C EQ PUSH2 0x1D5 JUMPI DUP1 PUSH4 0x86CDF604 EQ PUSH2 0x1F3 JUMPI DUP1 PUSH4 0x8DA5CB5B EQ PUSH2 0x211 JUMPI PUSH2 0x12C JUMP JUMPDEST DUP1 PUSH4 0xB03E44A EQ PUSH2 0x131 JUMPI DUP1 PUSH4 0x1AA3A008 EQ PUSH2 0x14D JUMPI DUP1 PUSH4 0x1D298944 EQ PUSH2 0x157 JUMPI DUP1 PUSH4 0x378EFA37 EQ PUSH2 0x173 JUMPI DUP1 PUSH4 0x622527B7 EQ PUSH2 0x191 JUMPI JUMPDEST PUSH1 0x0 DUP1 REVERT JUMPDEST PUSH2 0x14B PUSH1 0x4 DUP1 CALLDATASIZE SUB DUP2 ADD SWAP1 PUSH2 0x146 SWAP2 SWAP1 PUSH2 0x2176 JUMP JUMPDEST PUSH2 0x375 JUMP JUMPDEST STOP JUMPDEST PUSH2 0x155 PUSH2 0x793 JUMP JUMPDEST STOP JUMPDEST PUSH2 0x171 PUSH1 0x4 DUP1 CALLDATASIZE SUB DUP2 ADD SWAP1 PUSH2 0x16C SWAP2 SWAP1 PUSH2 0x21F1 JUMP JUMPDEST PUSH2 0x922 JUMP JUMPDEST STOP JUMPDEST PUSH2 0x17B PUSH2 0xE0A JUMP JUMPDEST PUSH1 0x40 MLOAD PUSH2 0x188 SWAP2 SWAP1 PUSH2 0x222D JUMP JUMPDEST PUSH1 0x40 MLOAD DUP1 SWAP2 SUB SWAP1 RETURN JUMPDEST PUSH2 0x1AB PUSH1 0x4 DUP1 CALLDATASIZE SUB DUP2 ADD SWAP1 PUSH2 0x1A6 SWAP2 SWAP1 PUSH2 0x2248 JUMP JUMPDEST PUSH2 0xE11 JUMP JUMPDEST STOP JUMPDEST PUSH2 0x1B5 PUSH2 0x1274 JUMP JUMPDEST PUSH1 0x40 MLOAD PUSH2 0x1C2 SWAP2 SWAP1 PUSH2 0x22D2 JUMP JUMPDEST PUSH1 0x40 MLOAD DUP1 SWAP2 SUB SWAP1 RETURN JUMPDEST PUSH2 0x1D3 PUSH2 0x1298 JUMP JUMPDEST STOP JUMPDEST PUSH2 0x1DD PUSH2 0x12AC JUMP JUMPDEST PUSH1 0x40 MLOAD PUSH2 0x1EA SWAP2 SWAP1 PUSH2 0x222D JUMP JUMPDEST PUSH1 0x40 MLOAD DUP1 SWAP2 SUB SWAP1 RETURN JUMPDEST PUSH2 0x1FB PUSH2 0x12D0 JUMP JUMPDEST PUSH1 0x40 MLOAD PUSH2 0x208 SWAP2 SWAP1 PUSH2 0x23D7 JUMP JUMPDEST PUSH1 0x40 MLOAD DUP1 SWAP2 SUB SWAP1 RETURN JUMPDEST PUSH2 0x219 PUSH2 0x136A JUMP JUMPDEST PUSH1 0x40 MLOAD PUSH2 0x226 SWAP2 SWAP1 PUSH2 0x22D2 JUMP JUMPDEST PUSH1 0x40 MLOAD DUP1 SWAP2 SUB SWAP1 RETURN JUMPDEST PUSH2 0x249 PUSH1 0x4 DUP1 CALLDATASIZE SUB DUP2 ADD SWAP1 PUSH2 0x244 SWAP2 SWAP1 PUSH2 0x21F1 JUMP JUMPDEST PUSH2 0x1393 JUMP JUMPDEST STOP JUMPDEST PUSH2 0x265 PUSH1 0x4 DUP1 CALLDATASIZE SUB DUP2 ADD SWAP1 PUSH2 0x260 SWAP2 SWAP1 PUSH2 0x23F9 JUMP JUMPDEST PUSH2 0x1707 JUMP JUMPDEST PUSH1 0x40 MLOAD PUSH2 0x272 SWAP2 SWAP1 PUSH2 0x23D7 JUMP JUMPDEST PUSH1 0x40 MLOAD DUP1 SWAP2 SUB SWAP1 RETURN JUMPDEST PUSH2 0x295 PUSH1 0x4 DUP1 CALLDATASIZE SUB DUP2 ADD SWAP1 PUSH2 0x290 SWAP2 SWAP1 PUSH2 0x21F1 JUMP JUMPDEST PUSH2 0x17E0 JUMP JUMPDEST PUSH1 0x40 MLOAD PUSH2 0x2A2 SWAP2 SWAP1 PUSH2 0x22D2 JUMP JUMPDEST PUSH1 0x40 MLOAD DUP1 SWAP2 SUB SWAP1 RETURN JUMPDEST PUSH2 0x2C5 PUSH1 0x4 DUP1 CALLDATASIZE SUB DUP2 ADD SWAP1 PUSH2 0x2C0 SWAP2 SWAP1 PUSH2 0x21F1 JUMP JUMPDEST PUSH2 0x181F JUMP JUMPDEST STOP JUMPDEST PUSH2 0x2CF PUSH2 0x19C0 JUMP JUMPDEST PUSH1 0x40 MLOAD PUSH2 0x2DC SWAP2 SWAP1 PUSH2 0x222D JUMP JUMPDEST PUSH1 0x40 MLOAD DUP1 SWAP2 SUB SWAP1 RETURN JUMPDEST PUSH2 0x2ED PUSH2 0x19C6 JUMP JUMPDEST PUSH1 0x40 MLOAD PUSH2 0x2FA SWAP2 SWAP1 PUSH2 0x24E4 JUMP JUMPDEST PUSH1 0x40 MLOAD DUP1 SWAP2 SUB SWAP1 RETURN JUMPDEST PUSH2 0x31D PUSH1 0x4 DUP1 CALLDATASIZE SUB DUP2 ADD SWAP1 PUSH2 0x318 SWAP2 SWAP1 PUSH2 0x21F1 JUMP JUMPDEST PUSH2 0x1A54 JUMP JUMPDEST PUSH1 0x40 MLOAD PUSH2 0x32A SWAP2 SWAP1 PUSH2 0x262E JUMP JUMPDEST PUSH1 0x40 MLOAD DUP1 SWAP2 SUB SWAP1 RETURN JUMPDEST PUSH2 0x34D PUSH1 0x4 DUP1 CALLDATASIZE SUB DUP2 ADD SWAP1 PUSH2 0x348 SWAP2 SWAP1 PUSH2 0x21F1 JUMP JUMPDEST PUSH2 0x1C50 JUMP JUMPDEST STOP JUMPDEST PUSH2 0x369 PUSH1 0x4 DUP1 CALLDATASIZE SUB DUP2 ADD SWAP1 PUSH2 0x364 SWAP2 SWAP1 PUSH2 0x23F9 JUMP JUMPDEST PUSH2 0x1CA3 JUMP JUMPDEST STOP JUMPDEST PUSH2 0x373 PUSH2 0x1D29 JUMP JUMPDEST STOP JUMPDEST PUSH1 0x5 PUSH1 0x0 CALLER PUSH20 0xFFFFFFFFFFFFFFFFFFFFFFFFFFFFFFFFFFFFFFFF AND PUSH20 0xFFFFFFFFFFFFFFFFFFFFFFFFFFFFFFFFFFFFFFFF AND DUP2 MSTORE PUSH1 0x20 ADD SWAP1 DUP2 MSTORE PUSH1 0x20 ADD PUSH1 0x0 KECCAK256 PUSH1 0x0 SWAP1 SLOAD SWAP1 PUSH2 0x100 EXP SWAP1 DIV PUSH1 0xFF AND PUSH2 0x403 JUMPI CALLER PUSH1 0x40 MLOAD PUSH32 0xAE2730CA00000000000000000000000000000000000000000000000000000000 DUP2 MSTORE PUSH1 0x4 ADD PUSH2 0x3FA SWAP2 SWAP1 PUSH2 0x22D2 JUMP JUMPDEST PUSH1 0x40 MLOAD DUP1 SWAP2 SUB SWAP1 REVERT JUMPDEST PUSH1 0x0 CALLER TIMESTAMP PUSH1 0x40 MLOAD PUSH1 0x20 ADD PUSH2 0x418 SWAP3 SWAP2 SWAP1 PUSH2 0x270A JUMP JUMPDEST PUSH1 0x40 MLOAD PUSH1 0x20 DUP2 DUP4 SUB SUB DUP2 MSTORE SWAP1 PUSH1 0x40 MSTORE DUP1 MLOAD SWAP1 PUSH1 0x20 ADD KECCAK256 SWAP1 POP DUP1 PUSH1 0x3 PUSH1 0x0 DUP5 DUP2 MSTORE PUSH1 0x20 ADD SWAP1 DUP2 MSTORE PUSH1 0x20 ADD PUSH1 0x0 KECCAK256 PUSH1 0x0 PUSH2 0x100 EXP DUP2 SLOAD DUP2 PUSH4 0xFFFFFFFF MUL NOT AND SWAP1 DUP4 PUSH1 0xE0 SHR MUL OR SWAP1 SSTORE POP PUSH1 0x0 TIMESTAMP SWAP1 POP PUSH1 0x0 PUSH1 0x40 MLOAD DUP1 PUSH2 0x100 ADD PUSH1 0x40 MSTORE DUP1 DUP5 PUSH28 0xFFFFFFFFFFFFFFFFFFFFFFFFFFFFFFFFFFFFFFFFFFFFFFFFFFFFFFFF NOT AND DUP2 MSTORE PUSH1 0x20 ADD DUP4 DUP2 MSTORE PUSH1 0x20 ADD CALLER PUSH20 0xFFFFFFFFFFFFFFFFFFFFFFFFFFFFFFFFFFFFFFFF AND DUP2 MSTORE PUSH1 0x20 ADD DUP10 PUSH20 0xFFFFFFFFFFFFFFFFFFFFFFFFFFFFFFFFFFFFFFFF AND DUP2 MSTORE PUSH1 0x20 ADD DUP7 DUP2 MSTORE PUSH1 0x20 ADD DUP8 DUP2 MSTORE PUSH1 0x20 ADD DUP9 DUP2 MSTORE PUSH1 0x20 ADD PUSH1 0x0 PUSH1 0x4 DUP2 GT ISZERO PUSH2 0x4FB JUMPI PUSH2 0x4FA PUSH2 0x2515 JUMP JUMPDEST JUMPDEST DUP2 MSTORE POP SWAP1 POP DUP1 PUSH1 0x8 PUSH1 0x0 DUP6 PUSH28 0xFFFFFFFFFFFFFFFFFFFFFFFFFFFFFFFFFFFFFFFFFFFFFFFFFFFFFFFF NOT AND PUSH28 0xFFFFFFFFFFFFFFFFFFFFFFFFFFFFFFFFFFFFFFFFFFFFFFFFFFFFFFFF NOT AND DUP2 MSTORE PUSH1 0x20 ADD SWAP1 DUP2 MSTORE PUSH1 0x20 ADD PUSH1 0x0 KECCAK256 PUSH1 0x0 DUP3 ADD MLOAD DUP2 PUSH1 0x0 ADD PUSH1 0x0 PUSH2 0x100 EXP DUP2 SLOAD DUP2 PUSH4 0xFFFFFFFF MUL NOT AND SWAP1 DUP4 PUSH1 0xE0 SHR MUL OR SWAP1 SSTORE POP PUSH1 0x20 DUP3 ADD MLOAD DUP2 PUSH1 0x1 ADD SSTORE PUSH1 0x40 DUP3 ADD MLOAD DUP2 PUSH1 0x2 ADD PUSH1 0x0 PUSH2 0x100 EXP DUP2 SLOAD DUP2 PUSH20 0xFFFFFFFFFFFFFFFFFFFFFFFFFFFFFFFFFFFFFFFF MUL NOT AND SWAP1 DUP4 PUSH20 0xFFFFFFFFFFFFFFFFFFFFFFFFFFFFFFFFFFFFFFFF AND MUL OR SWAP1 SSTORE POP PUSH1 0x60 DUP3 ADD MLOAD DUP2 PUSH1 0x3 ADD PUSH1 0x0 PUSH2 0x100 EXP DUP2 SLOAD DUP2 PUSH20 0xFFFFFFFFFFFFFFFFFFFFFFFFFFFFFFFFFFFFFFFF MUL NOT AND SWAP1 DUP4 PUSH20 0xFFFFFFFFFFFFFFFFFFFFFFFFFFFFFFFFFFFFFFFF AND MUL OR SWAP1 SSTORE POP PUSH1 0x80 DUP3 ADD MLOAD DUP2 PUSH1 0x4 ADD SSTORE PUSH1 0xA0 DUP3 ADD MLOAD DUP2 PUSH1 0x5 ADD SSTORE PUSH1 0xC0 DUP3 ADD MLOAD DUP2 PUSH1 0x6 ADD SSTORE PUSH1 0xE0 DUP3 ADD MLOAD DUP2 PUSH1 0x7 ADD PUSH1 0x0 PUSH2 0x100 EXP DUP2 SLOAD DUP2 PUSH1 0xFF MUL NOT AND SWAP1 DUP4 PUSH1 0x4 DUP2 GT ISZERO PUSH2 0x657 JUMPI PUSH2 0x656 PUSH2 0x2515 JUMP JUMPDEST JUMPDEST MUL OR SWAP1 SSTORE POP SWAP1 POP POP PUSH1 0x6 DUP4 SWAP1 DUP1 PUSH1 0x1 DUP2 SLOAD ADD DUP1 DUP3 SSTORE DUP1 SWAP2 POP POP PUSH1 0x1 SWAP1 SUB SWAP1 PUSH1 0x0 MSTORE PUSH1 0x20 PUSH1 0x0 KECCAK256 SWAP1 PUSH1 0x8 SWAP2 DUP3 DUP3 DIV ADD SWAP2 SWAP1 MOD PUSH1 0x4 MUL SWAP1 SWAP2 SWAP1 SWAP2 SWAP1 SWAP2 PUSH2 0x100 EXP DUP2 SLOAD DUP2 PUSH4 0xFFFFFFFF MUL NOT AND SWAP1 DUP4 PUSH1 0xE0 SHR MUL OR SWAP1 SSTORE POP PUSH1 0x7 PUSH1 0x0 CALLER PUSH20 0xFFFFFFFFFFFFFFFFFFFFFFFFFFFFFFFFFFFFFFFF AND PUSH20 0xFFFFFFFFFFFFFFFFFFFFFFFFFFFFFFFFFFFFFFFF AND DUP2 MSTORE PUSH1 0x20 ADD SWAP1 DUP2 MSTORE PUSH1 0x20 ADD PUSH1 0x0 KECCAK256 DUP4 SWAP1 DUP1 PUSH1 0x1 DUP2 SLOAD ADD DUP1 DUP3 SSTORE DUP1 SWAP2 POP POP PUSH1 0x1 SWAP1 SUB SWAP1 PUSH1 0x0 MSTORE PUSH1 0x20 PUSH1 0x0 KECCAK256 SWAP1 PUSH1 0x8 SWAP2 DUP3 DUP3 DIV ADD SWAP2 SWAP1 MOD PUSH1 0x4 MUL SWAP1 SWAP2 SWAP1 SWAP2 SWAP1 SWAP2 PUSH2 0x100 EXP DUP2 SLOAD DUP2 PUSH4 0xFFFFFFFF MUL NOT AND SWAP1 DUP4 PUSH1 0xE0 SHR MUL OR SWAP1 SSTORE POP DUP3 PUSH28 0xFFFFFFFFFFFFFFFFFFFFFFFFFFFFFFFFFFFFFFFFFFFFFFFFFFFFFFFF NOT AND PUSH32 0xE41D37EA58ED0203F8476BF3621DBBAB9E570A47E5D70E070D77FFF130BAD3D7 CALLER PUSH1 0x40 MLOAD PUSH2 0x781 SWAP2 SWAP1 PUSH2 0x22D2 JUMP JUMPDEST PUSH1 0x40 MLOAD DUP1 SWAP2 SUB SWAP1 LOG2 POP POP POP POP POP POP POP POP JUMP JUMPDEST PUSH1 0x5 PUSH1 0x0 CALLER PUSH20 0xFFFFFFFFFFFFFFFFFFFFFFFFFFFFFFFFFFFFFFFF AND PUSH20 0xFFFFFFFFFFFFFFFFFFFFFFFFFFFFFFFFFFFFFFFF AND DUP2 MSTORE PUSH1 0x20 ADD SWAP1 DUP2 MSTORE PUSH1 0x20 ADD PUSH1 0x0 KECCAK256 PUSH1 0x0 SWAP1 SLOAD SWAP1 PUSH2 0x100 EXP SWAP1 DIV PUSH1 0xFF AND ISZERO PUSH2 0x822 JUMPI CALLER PUSH1 0x40 MLOAD PUSH32 0x9E676EE700000000000000000000000000000000000000000000000000000000 DUP2 MSTORE PUSH1 0x4 ADD PUSH2 0x819 SWAP2 SWAP1 PUSH2 0x22D2 JUMP JUMPDEST PUSH1 0x40 MLOAD DUP1 SWAP2 SUB SWAP1 REVERT JUMPDEST PUSH1 0x1 PUSH1 0x5 PUSH1 0x0 CALLER PUSH20 0xFFFFFFFFFFFFFFFFFFFFFFFFFFFFFFFFFFFFFFFF AND PUSH20 0xFFFFFFFFFFFFFFFFFFFFFFFFFFFFFFFFFFFFFFFF AND DUP2 MSTORE PUSH1 0x20 ADD SWAP1 DUP2 MSTORE PUSH1 0x20 ADD PUSH1 0x0 KECCAK256 PUSH1 0x0 PUSH2 0x100 EXP DUP2 SLOAD DUP2 PUSH1 0xFF MUL NOT AND SWAP1 DUP4 ISZERO ISZERO MUL OR SWAP1 SSTORE POP PUSH1 0x4 CALLER SWAP1 DUP1 PUSH1 0x1 DUP2 SLOAD ADD DUP1 DUP3 SSTORE DUP1 SWAP2 POP POP PUSH1 0x1 SWAP1 SUB SWAP1 PUSH1 0x0 MSTORE PUSH1 0x20 PUSH1 0x0 KECCAK256 ADD PUSH1 0x0 SWAP1 SWAP2 SWAP1 SWAP2 SWAP1 SWAP2 PUSH2 0x100 EXP DUP2 SLOAD DUP2 PUSH20 0xFFFFFFFFFFFFFFFFFFFFFFFFFFFFFFFFFFFFFFFF MUL NOT AND SWAP1 DUP4 PUSH20 0xFFFFFFFFFFFFFFFFFFFFFFFFFFFFFFFFFFFFFFFF AND MUL OR SWAP1 SSTORE POP CALLER PUSH20 0xFFFFFFFFFFFFFFFFFFFFFFFFFFFFFFFFFFFFFFFF AND PUSH32 0xB0376A109CBB578B709F85F6A7BEFCDAC3AC1AB251C99EDE87F30C9572AC4D3 PUSH1 0x40 MLOAD PUSH1 0x40 MLOAD DUP1 SWAP2 SUB SWAP1 LOG2 JUMP JUMPDEST PUSH2 0x92A PUSH2 0x1E99 JUMP JUMPDEST PUSH1 0x0 PUSH1 0x3 PUSH1 0x0 DUP4 DUP2 MSTORE PUSH1 0x20 ADD SWAP1 DUP2 MSTORE PUSH1 0x20 ADD PUSH1 0x0 KECCAK256 PUSH1 0x0 SWAP1 SLOAD SWAP1 PUSH2 0x100 EXP SWAP1 DIV PUSH1 0xE0 SHL SWAP1 POP PUSH1 0x0 PUSH1 0x8 PUSH1 0x0 DUP4 PUSH28 0xFFFFFFFFFFFFFFFFFFFFFFFFFFFFFFFFFFFFFFFFFFFFFFFFFFFFFFFF NOT AND PUSH28 0xFFFFFFFFFFFFFFFFFFFFFFFFFFFFFFFFFFFFFFFFFFFFFFFFFFFFFFFF NOT AND DUP2 MSTORE PUSH1 0x20 ADD SWAP1 DUP2 MSTORE PUSH1 0x20 ADD PUSH1 0x0 KECCAK256 SWAP1 POP PUSH1 0x1 PUSH1 0x4 DUP2 GT ISZERO PUSH2 0x9B8 JUMPI PUSH2 0x9B7 PUSH2 0x2515 JUMP JUMPDEST JUMPDEST DUP2 PUSH1 0x7 ADD PUSH1 0x0 SWAP1 SLOAD SWAP1 PUSH2 0x100 EXP SWAP1 DIV PUSH1 0xFF AND PUSH1 0x4 DUP2 GT ISZERO PUSH2 0x9DC JUMPI PUSH2 0x9DB PUSH2 0x2515 JUMP JUMPDEST JUMPDEST EQ PUSH2 0xA32 JUMPI PUSH1 0x1 DUP2 PUSH1 0x7 ADD PUSH1 0x0 SWAP1 SLOAD SWAP1 PUSH2 0x100 EXP SWAP1 DIV PUSH1 0xFF AND PUSH1 0x40 MLOAD PUSH32 0x1E8A8FCC00000000000000000000000000000000000000000000000000000000 DUP2 MSTORE PUSH1 0x4 ADD PUSH2 0xA29 SWAP3 SWAP2 SWAP1 PUSH2 0x2750 JUMP JUMPDEST PUSH1 0x40 MLOAD DUP1 SWAP2 SUB SWAP1 REVERT JUMPDEST PUSH1 0x0 DUP2 PUSH1 0x6 ADD SLOAD SWAP1 POP PUSH1 0x0 PUSH3 0x186A0 PUSH1 0x2 SLOAD DUP4 PUSH2 0xA4F SWAP2 SWAP1 PUSH2 0x27A8 JUMP JUMPDEST PUSH2 0xA59 SWAP2 SWAP1 PUSH2 0x2819 JUMP JUMPDEST SWAP1 POP PUSH1 0x0 DUP2 DUP4 PUSH2 0xA69 SWAP2 SWAP1 PUSH2 0x284A JUMP JUMPDEST SWAP1 POP PUSH1 0x0 PUSH32 0x0 SWAP1 POP DUP2 DUP2 PUSH20 0xFFFFFFFFFFFFFFFFFFFFFFFFFFFFFFFFFFFFFFFF AND PUSH4 0x70A08231 ADDRESS PUSH1 0x40 MLOAD DUP3 PUSH4 0xFFFFFFFF AND PUSH1 0xE0 SHL DUP2 MSTORE PUSH1 0x4 ADD PUSH2 0xACA SWAP2 SWAP1 PUSH2 0x22D2 JUMP JUMPDEST PUSH1 0x20 PUSH1 0x40 MLOAD DUP1 DUP4 SUB DUP2 DUP7 GAS STATICCALL ISZERO DUP1 ISZERO PUSH2 0xAE7 JUMPI RETURNDATASIZE PUSH1 0x0 DUP1 RETURNDATACOPY RETURNDATASIZE PUSH1 0x0 REVERT JUMPDEST POP POP POP POP PUSH1 0x40 MLOAD RETURNDATASIZE PUSH1 0x1F NOT PUSH1 0x1F DUP3 ADD AND DUP3 ADD DUP1 PUSH1 0x40 MSTORE POP DUP2 ADD SWAP1 PUSH2 0xB0B SWAP2 SWAP1 PUSH2 0x2893 JUMP JUMPDEST LT ISZERO PUSH2 0xBD0 JUMPI DUP2 DUP2 PUSH20 0xFFFFFFFFFFFFFFFFFFFFFFFFFFFFFFFFFFFFFFFF AND PUSH4 0x70A08231 PUSH2 0xB36 PUSH2 0x136A JUMP JUMPDEST PUSH1 0x40 MLOAD DUP3 PUSH4 0xFFFFFFFF AND PUSH1 0xE0 SHL DUP2 MSTORE PUSH1 0x4 ADD PUSH2 0xB52 SWAP2 SWAP1 PUSH2 0x22D2 JUMP JUMPDEST PUSH1 0x20 PUSH1 0x40 MLOAD DUP1 DUP4 SUB DUP2 DUP7 GAS STATICCALL ISZERO DUP1 ISZERO PUSH2 0xB6F JUMPI RETURNDATASIZE PUSH1 0x0 DUP1 RETURNDATACOPY RETURNDATASIZE PUSH1 0x0 REVERT JUMPDEST POP POP POP POP PUSH1 0x40 MLOAD RETURNDATASIZE PUSH1 0x1F NOT PUSH1 0x1F DUP3 ADD AND DUP3 ADD DUP1 PUSH1 0x40 MSTORE POP DUP2 ADD SWAP1 PUSH2 0xB93 SWAP2 SWAP1 PUSH2 0x2893 JUMP JUMPDEST PUSH1 0x40 MLOAD PUSH32 0xAA1F42BD00000000000000000000000000000000000000000000000000000000 DUP2 MSTORE PUSH1 0x4 ADD PUSH2 0xBC7 SWAP3 SWAP2 SWAP1 PUSH2 0x28C0 JUMP JUMPDEST PUSH1 0x40 MLOAD DUP1 SWAP2 SUB SWAP1 REVERT JUMPDEST PUSH1 0x2 DUP6 PUSH1 0x7 ADD PUSH1 0x0 PUSH2 0x100 EXP DUP2 SLOAD DUP2 PUSH1 0xFF MUL NOT AND SWAP1 DUP4 PUSH1 0x4 DUP2 GT ISZERO PUSH2 0xBF8 JUMPI PUSH2 0xBF7 PUSH2 0x2515 JUMP JUMPDEST JUMPDEST MUL OR SWAP1 SSTORE POP PUSH1 0x0 PUSH32 0x0 SWAP1 POP PUSH1 0x0 DUP2 PUSH20 0xFFFFFFFFFFFFFFFFFFFFFFFFFFFFFFFFFFFFFFFF AND PUSH4 0xA9059CBB DUP9 PUSH1 0x3 ADD PUSH1 0x0 SWAP1 SLOAD SWAP1 PUSH2 0x100 EXP SWAP1 DIV PUSH20 0xFFFFFFFFFFFFFFFFFFFFFFFFFFFFFFFFFFFFFFFF AND DUP7 PUSH1 0x40 MLOAD DUP4 PUSH4 0xFFFFFFFF AND PUSH1 0xE0 SHL DUP2 MSTORE PUSH1 0x4 ADD PUSH2 0xC83 SWAP3 SWAP2 SWAP1 PUSH2 0x28E9 JUMP JUMPDEST PUSH1 0x20 PUSH1 0x40 MLOAD DUP1 DUP4 SUB DUP2 PUSH1 0x0 DUP8 GAS CALL ISZERO DUP1 ISZERO PUSH2 0xCA2 JUMPI RETURNDATASIZE PUSH1 0x0 DUP1 RETURNDATACOPY RETURNDATASIZE PUSH1 0x0 REVERT JUMPDEST POP POP POP POP PUSH1 0x40 MLOAD RETURNDATASIZE PUSH1 0x1F NOT PUSH1 0x1F DUP3 ADD AND DUP3 ADD DUP1 PUSH1 0x40 MSTORE POP DUP2 ADD SWAP1 PUSH2 0xCC6 SWAP2 SWAP1 PUSH2 0x294A JUMP JUMPDEST SWAP1 POP DUP1 PUSH2 0xCFF JUMPI PUSH1 0x40 MLOAD PUSH32 0xF9310F900000000000000000000000000000000000000000000000000000000 DUP2 MSTORE PUSH1 0x4 ADD PUSH1 0x40 MLOAD DUP1 SWAP2 SUB SWAP1 REVERT JUMPDEST PUSH1 0x0 DUP3 PUSH20 0xFFFFFFFFFFFFFFFFFFFFFFFFFFFFFFFFFFFFFFFF AND PUSH4 0xA9059CBB PUSH2 0xD25 PUSH2 0x136A JUMP JUMPDEST DUP9 PUSH1 0x40 MLOAD DUP4 PUSH4 0xFFFFFFFF AND PUSH1 0xE0 SHL DUP2 MSTORE PUSH1 0x4 ADD PUSH2 0xD43 SWAP3 SWAP2 SWAP1 PUSH2 0x28E9 JUMP JUMPDEST PUSH1 0x20 PUSH1 0x40 MLOAD DUP1 DUP4 SUB DUP2 PUSH1 0x0 DUP8 GAS CALL ISZERO DUP1 ISZERO PUSH2 0xD62 JUMPI RETURNDATASIZE PUSH1 0x0 DUP1 RETURNDATACOPY RETURNDATASIZE PUSH1 0x0 REVERT JUMPDEST POP POP POP POP PUSH1 0x40 MLOAD RETURNDATASIZE PUSH1 0x1F NOT PUSH1 0x1F DUP3 ADD AND DUP3 ADD DUP1 PUSH1 0x40 MSTORE POP DUP2 ADD SWAP1 PUSH2 0xD86 SWAP2 SWAP1 PUSH2 0x294A JUMP JUMPDEST SWAP1 POP DUP1 PUSH2 0xDBF JUMPI PUSH1 0x40 MLOAD PUSH32 0xF9310F900000000000000000000000000000000000000000000000000000000 DUP2 MSTORE PUSH1 0x4 ADD PUSH1 0x40 MLOAD DUP1 SWAP2 SUB SWAP1 REVERT JUMPDEST PUSH32 0xD7D080F34F62BE028407DF1C24AD247902199ACE5D02D8FAA13F5636809D0C7C DUP10 PUSH1 0x40 MLOAD PUSH2 0xDEE SWAP2 SWAP1 PUSH2 0x2986 JUMP JUMPDEST PUSH1 0x40 MLOAD DUP1 SWAP2 SUB SWAP1 LOG1 POP POP POP POP POP POP POP POP POP PUSH2 0xE07 PUSH2 0x1EDF JUMP JUMPDEST POP JUMP JUMPDEST PUSH3 0x186A0 DUP2 JUMP JUMPDEST PUSH1 0x5 PUSH1 0x0 CALLER PUSH20 0xFFFFFFFFFFFFFFFFFFFFFFFFFFFFFFFFFFFFFFFF AND PUSH20 0xFFFFFFFFFFFFFFFFFFFFFFFFFFFFFFFFFFFFFFFF AND DUP2 MSTORE PUSH1 0x20 ADD SWAP1 DUP2 MSTORE PUSH1 0x20 ADD PUSH1 0x0 KECCAK256 PUSH1 0x0 SWAP1 SLOAD SWAP1 PUSH2 0x100 EXP SWAP1 DIV PUSH1 0xFF AND PUSH2 0xE9F JUMPI CALLER PUSH1 0x40 MLOAD PUSH32 0xAE2730CA00000000000000000000000000000000000000000000000000000000 DUP2 MSTORE PUSH1 0x4 ADD PUSH2 0xE96 SWAP2 SWAP1 PUSH2 0x22D2 JUMP JUMPDEST PUSH1 0x40 MLOAD DUP1 SWAP2 SUB SWAP1 REVERT JUMPDEST PUSH1 0x0 PUSH1 0x3 PUSH1 0x0 DUP8 DUP2 MSTORE PUSH1 0x20 ADD SWAP1 DUP2 MSTORE PUSH1 0x20 ADD PUSH1 0x0 KECCAK256 PUSH1 0x0 SWAP1 SLOAD SWAP1 PUSH2 0x100 EXP SWAP1 DIV PUSH1 0xE0 SHL SWAP1 POP PUSH1 0x0 PUSH20 0xFFFFFFFFFFFFFFFFFFFFFFFFFFFFFFFFFFFFFFFF AND DUP6 PUSH20 0xFFFFFFFFFFFFFFFFFFFFFFFFFFFFFFFFFFFFFFFF AND SUB PUSH2 0xF33 JUMPI PUSH1 0x40 MLOAD PUSH32 0x8C379A000000000000000000000000000000000000000000000000000000000 DUP2 MSTORE PUSH1 0x4 ADD PUSH2 0xF2A SWAP1 PUSH2 0x29FE JUMP JUMPDEST PUSH1 0x40 MLOAD DUP1 SWAP2 SUB SWAP1 REVERT JUMPDEST PUSH1 0x0 PUSH1 0x8 PUSH1 0x0 DUP4 PUSH28 0xFFFFFFFFFFFFFFFFFFFFFFFFFFFFFFFFFFFFFFFFFFFFFFFFFFFFFFFF NOT AND PUSH28 0xFFFFFFFFFFFFFFFFFFFFFFFFFFFFFFFFFFFFFFFFFFFFFFFFFFFFFFFF NOT AND DUP2 MSTORE PUSH1 0x20 ADD SWAP1 DUP2 MSTORE PUSH1 0x20 ADD PUSH1 0x0 KECCAK256 SWAP1 POP PUSH1 0x0 PUSH1 0x4 DUP2 GT ISZERO PUSH2 0xF9C JUMPI PUSH2 0xF9B PUSH2 0x2515 JUMP JUMPDEST JUMPDEST DUP2 PUSH1 0x7 ADD PUSH1 0x0 SWAP1 SLOAD SWAP1 PUSH2 0x100 EXP SWAP1 DIV PUSH1 0xFF AND PUSH1 0x4 DUP2 GT ISZERO PUSH2 0xFC0 JUMPI PUSH2 0xFBF PUSH2 0x2515 JUMP JUMPDEST JUMPDEST EQ PUSH2 0x1016 JUMPI PUSH1 0x0 DUP2 PUSH1 0x7 ADD PUSH1 0x0 SWAP1 SLOAD SWAP1 PUSH2 0x100 EXP SWAP1 DIV PUSH1 0xFF AND PUSH1 0x40 MLOAD PUSH32 0x1E8A8FCC00000000000000000000000000000000000000000000000000000000 DUP2 MSTORE PUSH1 0x4 ADD PUSH2 0x100D SWAP3 SWAP2 SWAP1 PUSH2 0x2750 JUMP JUMPDEST PUSH1 0x40 MLOAD DUP1 SWAP2 SUB SWAP1 REVERT JUMPDEST CALLER PUSH20 0xFFFFFFFFFFFFFFFFFFFFFFFFFFFFFFFFFFFFFFFF AND DUP2 PUSH1 0x2 ADD PUSH1 0x0 SWAP1 SLOAD SWAP1 PUSH2 0x100 EXP SWAP1 DIV PUSH20 0xFFFFFFFFFFFFFFFFFFFFFFFFFFFFFFFFFFFFFFFF AND PUSH20 0xFFFFFFFFFFFFFFFFFFFFFFFFFFFFFFFFFFFFFFFF AND EQ PUSH2 0x109F JUMPI PUSH1 0x40 MLOAD PUSH32 0x82B4290000000000000000000000000000000000000000000000000000000000 DUP2 MSTORE PUSH1 0x4 ADD PUSH1 0x40 MLOAD DUP1 SWAP2 SUB SWAP1 REVERT JUMPDEST DUP6 DUP2 PUSH1 0x3 ADD PUSH1 0x0 PUSH2 0x100 EXP DUP2 SLOAD DUP2 PUSH20 0xFFFFFFFFFFFFFFFFFFFFFFFFFFFFFFFFFFFFFFFF MUL NOT AND SWAP1 DUP4 PUSH20 0xFFFFFFFFFFFFFFFFFFFFFFFFFFFFFFFFFFFFFFFF AND MUL OR SWAP1 SSTORE POP DUP5 DUP2 PUSH1 0x5 ADD DUP2 SWAP1 SSTORE POP DUP4 DUP2 PUSH1 0x4 ADD DUP2 SWAP1 SSTORE POP PUSH1 0x0 PUSH32 0x0 SWAP1 POP DUP4 DUP3 PUSH1 0x6 ADD SLOAD GT ISZERO PUSH2 0x1213 JUMPI PUSH1 0x0 DUP2 PUSH20 0xFFFFFFFFFFFFFFFFFFFFFFFFFFFFFFFFFFFFFFFF AND PUSH4 0xA9059CBB DUP5 PUSH1 0x2 ADD PUSH1 0x0 SWAP1 SLOAD SWAP1 PUSH2 0x100 EXP SWAP1 DIV PUSH20 0xFFFFFFFFFFFFFFFFFFFFFFFFFFFFFFFFFFFFFFFF AND DUP8 DUP7 PUSH1 0x6 ADD SLOAD PUSH2 0x1178 SWAP2 SWAP1 PUSH2 0x284A JUMP JUMPDEST PUSH1 0x40 MLOAD DUP4 PUSH4 0xFFFFFFFF AND PUSH1 0xE0 SHL DUP2 MSTORE PUSH1 0x4 ADD PUSH2 0x1195 SWAP3 SWAP2 SWAP1 PUSH2 0x28E9 JUMP JUMPDEST PUSH1 0x20 PUSH1 0x40 MLOAD DUP1 DUP4 SUB DUP2 PUSH1 0x0 DUP8 GAS CALL ISZERO DUP1 ISZERO PUSH2 0x11B4 JUMPI RETURNDATASIZE PUSH1 0x0 DUP1 RETURNDATACOPY RETURNDATASIZE PUSH1 0x0 REVERT JUMPDEST POP POP POP POP PUSH1 0x40 MLOAD RETURNDATASIZE PUSH1 0x1F NOT PUSH1 0x1F DUP3 ADD AND DUP3 ADD DUP1 PUSH1 0x40 MSTORE POP DUP2 ADD SWAP1 PUSH2 0x11D8 SWAP2 SWAP1 PUSH2 0x294A JUMP JUMPDEST SWAP1 POP DUP1 PUSH2 0x1211 JUMPI PUSH1 0x40 MLOAD PUSH32 0xF9310F900000000000000000000000000000000000000000000000000000000 DUP2 MSTORE PUSH1 0x4 ADD PUSH1 0x40 MLOAD DUP1 SWAP2 SUB SWAP1 REVERT JUMPDEST POP JUMPDEST DUP3 PUSH28 0xFFFFFFFFFFFFFFFFFFFFFFFFFFFFFFFFFFFFFFFFFFFFFFFFFFFFFFFF NOT AND PUSH32 0x3143324469716EA7CB6B9BC9BBE9AF85E40758D7148F12663616614052A9F7B9 CALLER PUSH1 0x40 MLOAD PUSH2 0x1262 SWAP2 SWAP1 PUSH2 0x22D2 JUMP JUMPDEST PUSH1 0x40 MLOAD DUP1 SWAP2 SUB SWAP1 LOG2 POP POP POP POP POP POP POP POP JUMP JUMPDEST PUSH32 0x0 DUP2 JUMP JUMPDEST PUSH2 0x12A0 PUSH2 0x1EE8 JUMP JUMPDEST PUSH2 0x12AA PUSH1 0x0 PUSH2 0x1F6F JUMP JUMPDEST JUMP JUMPDEST PUSH32 0x0 DUP2 JUMP JUMPDEST PUSH1 0x60 PUSH1 0x6 DUP1 SLOAD DUP1 PUSH1 0x20 MUL PUSH1 0x20 ADD PUSH1 0x40 MLOAD SWAP1 DUP2 ADD PUSH1 0x40 MSTORE DUP1 SWAP3 SWAP2 SWAP1 DUP2 DUP2 MSTORE PUSH1 0x20 ADD DUP3 DUP1 SLOAD DUP1 ISZERO PUSH2 0x1360 JUMPI PUSH1 0x20 MUL DUP3 ADD SWAP2 SWAP1 PUSH1 0x0 MSTORE PUSH1 0x20 PUSH1 0x0 KECCAK256 SWAP1 PUSH1 0x0 SWAP1 JUMPDEST DUP3 DUP3 SWAP1 SLOAD SWAP1 PUSH2 0x100 EXP SWAP1 DIV PUSH1 0xE0 SHL PUSH28 0xFFFFFFFFFFFFFFFFFFFFFFFFFFFFFFFFFFFFFFFFFFFFFFFFFFFFFFFF NOT AND DUP2 MSTORE PUSH1 0x20 ADD SWAP1 PUSH1 0x4 ADD SWAP1 PUSH1 0x20 DUP3 PUSH1 0x3 ADD DIV SWAP3 DUP4 ADD SWAP3 PUSH1 0x1 SUB DUP3 MUL SWAP2 POP DUP1 DUP5 GT PUSH2 0x130D JUMPI SWAP1 POP JUMPDEST POP POP POP POP POP SWAP1 POP SWAP1 JUMP JUMPDEST PUSH1 0x0 DUP1 PUSH1 0x0 SWAP1 SLOAD SWAP1 PUSH2 0x100 EXP SWAP1 DIV PUSH20 0xFFFFFFFFFFFFFFFFFFFFFFFFFFFFFFFFFFFFFFFF AND SWAP1 POP SWAP1 JUMP JUMPDEST PUSH2 0x139B PUSH2 0x1EE8 JUMP JUMPDEST PUSH2 0x13A3 PUSH2 0x1E99 JUMP JUMPDEST PUSH1 0x0 PUSH1 0x3 PUSH1 0x0 DUP4 DUP2 MSTORE PUSH1 0x20 ADD SWAP1 DUP2 MSTORE PUSH1 0x20 ADD PUSH1 0x0 KECCAK256 PUSH1 0x0 SWAP1 SLOAD SWAP1 PUSH2 0x100 EXP SWAP1 DIV PUSH1 0xE0 SHL SWAP1 POP PUSH1 0x0 PUSH1 0x8 PUSH1 0x0 DUP4 PUSH28 0xFFFFFFFFFFFFFFFFFFFFFFFFFFFFFFFFFFFFFFFFFFFFFFFFFFFFFFFF NOT AND PUSH28 0xFFFFFFFFFFFFFFFFFFFFFFFFFFFFFFFFFFFFFFFFFFFFFFFFFFFFFFFF NOT AND DUP2 MSTORE PUSH1 0x20 ADD SWAP1 DUP2 MSTORE PUSH1 0x20 ADD PUSH1 0x0 KECCAK256 SWAP1 POP PUSH1 0x0 DUP2 PUSH1 0x6 ADD SLOAD SWAP1 POP PUSH1 0x0 PUSH32 0x0 SWAP1 POP DUP2 DUP2 PUSH20 0xFFFFFFFFFFFFFFFFFFFFFFFFFFFFFFFFFFFFFFFF AND PUSH4 0x70A08231 PUSH2 0x1470 PUSH2 0x136A JUMP JUMPDEST PUSH1 0x40 MLOAD DUP3 PUSH4 0xFFFFFFFF AND PUSH1 0xE0 SHL DUP2 MSTORE PUSH1 0x4 ADD PUSH2 0x148C SWAP2 SWAP1 PUSH2 0x22D2 JUMP JUMPDEST PUSH1 0x20 PUSH1 0x40 MLOAD DUP1 DUP4 SUB DUP2 DUP7 GAS STATICCALL ISZERO DUP1 ISZERO PUSH2 0x14A9 JUMPI RETURNDATASIZE PUSH1 0x0 DUP1 RETURNDATACOPY RETURNDATASIZE PUSH1 0x0 REVERT JUMPDEST POP POP POP POP PUSH1 0x40 MLOAD RETURNDATASIZE PUSH1 0x1F NOT PUSH1 0x1F DUP3 ADD AND DUP3 ADD DUP1 PUSH1 0x40 MSTORE POP DUP2 ADD SWAP1 PUSH2 0x14CD SWAP2 SWAP1 PUSH2 0x2893 JUMP JUMPDEST LT ISZERO PUSH2 0x1592 JUMPI DUP2 DUP2 PUSH20 0xFFFFFFFFFFFFFFFFFFFFFFFFFFFFFFFFFFFFFFFF AND PUSH4 0x70A08231 PUSH2 0x14F8 PUSH2 0x136A JUMP JUMPDEST PUSH1 0x40 MLOAD DUP3 PUSH4 0xFFFFFFFF AND PUSH1 0xE0 SHL DUP2 MSTORE PUSH1 0x4 ADD PUSH2 0x1514 SWAP2 SWAP1 PUSH2 0x22D2 JUMP JUMPDEST PUSH1 0x20 PUSH1 0x40 MLOAD DUP1 DUP4 SUB DUP2 DUP7 GAS STATICCALL ISZERO DUP1 ISZERO PUSH2 0x1531 JUMPI RETURNDATASIZE PUSH1 0x0 DUP1 RETURNDATACOPY RETURNDATASIZE PUSH1 0x0 REVERT JUMPDEST POP POP POP POP PUSH1 0x40 MLOAD RETURNDATASIZE PUSH1 0x1F NOT PUSH1 0x1F DUP3 ADD AND DUP3 ADD DUP1 PUSH1 0x40 MSTORE POP DUP2 ADD SWAP1 PUSH2 0x1555 SWAP2 SWAP1 PUSH2 0x2893 JUMP JUMPDEST PUSH1 0x40 MLOAD PUSH32 0xAA1F42BD00000000000000000000000000000000000000000000000000000000 DUP2 MSTORE PUSH1 0x4 ADD PUSH2 0x1589 SWAP3 SWAP2 SWAP1 PUSH2 0x28C0 JUMP JUMPDEST PUSH1 0x40 MLOAD DUP1 SWAP2 SUB SWAP1 REVERT JUMPDEST PUSH1 0x4 DUP4 PUSH1 0x7 ADD PUSH1 0x0 PUSH2 0x100 EXP DUP2 SLOAD DUP2 PUSH1 0xFF MUL NOT AND SWAP1 DUP4 PUSH1 0x4 DUP2 GT ISZERO PUSH2 0x15BA JUMPI PUSH2 0x15B9 PUSH2 0x2515 JUMP JUMPDEST JUMPDEST MUL OR SWAP1 SSTORE POP PUSH1 0x0 DUP2 PUSH20 0xFFFFFFFFFFFFFFFFFFFFFFFFFFFFFFFFFFFFFFFF AND PUSH4 0xA9059CBB DUP6 PUSH1 0x2 ADD PUSH1 0x0 SWAP1 SLOAD SWAP1 PUSH2 0x100 EXP SWAP1 DIV PUSH20 0xFFFFFFFFFFFFFFFFFFFFFFFFFFFFFFFFFFFFFFFF AND DUP7 PUSH1 0x6 ADD SLOAD PUSH1 0x40 MLOAD DUP4 PUSH4 0xFFFFFFFF AND PUSH1 0xE0 SHL DUP2 MSTORE PUSH1 0x4 ADD PUSH2 0x1624 SWAP3 SWAP2 SWAP1 PUSH2 0x28E9 JUMP JUMPDEST PUSH1 0x20 PUSH1 0x40 MLOAD DUP1 DUP4 SUB DUP2 PUSH1 0x0 DUP8 GAS CALL ISZERO DUP1 ISZERO PUSH2 0x1643 JUMPI RETURNDATASIZE PUSH1 0x0 DUP1 RETURNDATACOPY RETURNDATASIZE PUSH1 0x0 REVERT JUMPDEST POP POP POP POP PUSH1 0x40 MLOAD RETURNDATASIZE PUSH1 0x1F NOT PUSH1 0x1F DUP3 ADD AND DUP3 ADD DUP1 PUSH1 0x40 MSTORE POP DUP2 ADD SWAP1 PUSH2 0x1667 SWAP2 SWAP1 PUSH2 0x294A JUMP JUMPDEST SWAP1 POP DUP1 PUSH2 0x16A0 JUMPI PUSH1 0x40 MLOAD PUSH32 0xF9310F900000000000000000000000000000000000000000000000000000000 DUP2 MSTORE PUSH1 0x4 ADD PUSH1 0x40 MLOAD DUP1 SWAP2 SUB SWAP1 REVERT JUMPDEST DUP5 PUSH28 0xFFFFFFFFFFFFFFFFFFFFFFFFFFFFFFFFFFFFFFFFFFFFFFFFFFFFFFFF NOT AND PUSH32 0x3143324469716EA7CB6B9BC9BBE9AF85E40758D7148F12663616614052A9F7B9 CALLER PUSH1 0x40 MLOAD PUSH2 0x16EF SWAP2 SWAP1 PUSH2 0x22D2 JUMP JUMPDEST PUSH1 0x40 MLOAD DUP1 SWAP2 SUB SWAP1 LOG2 POP POP POP POP POP PUSH2 0x1704 PUSH2 0x1EDF JUMP JUMPDEST POP JUMP JUMPDEST PUSH1 0x60 PUSH1 0x7 PUSH1 0x0 DUP4 PUSH20 0xFFFFFFFFFFFFFFFFFFFFFFFFFFFFFFFFFFFFFFFF AND PUSH20 0xFFFFFFFFFFFFFFFFFFFFFFFFFFFFFFFFFFFFFFFF AND DUP2 MSTORE PUSH1 0x20 ADD SWAP1 DUP2 MSTORE PUSH1 0x20 ADD PUSH1 0x0 KECCAK256 DUP1 SLOAD DUP1 PUSH1 0x20 MUL PUSH1 0x20 ADD PUSH1 0x40 MLOAD SWAP1 DUP2 ADD PUSH1 0x40 MSTORE DUP1 SWAP3 SWAP2 SWAP1 DUP2 DUP2 MSTORE PUSH1 0x20 ADD DUP3 DUP1 SLOAD DUP1 ISZERO PUSH2 0x17D4 JUMPI PUSH1 0x20 MUL DUP3 ADD SWAP2 SWAP1 PUSH1 0x0 MSTORE PUSH1 0x20 PUSH1 0x0 KECCAK256 SWAP1 PUSH1 0x0 SWAP1 JUMPDEST DUP3 DUP3 SWAP1 SLOAD SWAP1 PUSH2 0x100 EXP SWAP1 DIV PUSH1 0xE0 SHL PUSH28 0xFFFFFFFFFFFFFFFFFFFFFFFFFFFFFFFFFFFFFFFFFFFFFFFFFFFFFFFF NOT AND DUP2 MSTORE PUSH1 0x20 ADD SWAP1 PUSH1 0x4 ADD SWAP1 PUSH1 0x20 DUP3 PUSH1 0x3 ADD DIV SWAP3 DUP4 ADD SWAP3 PUSH1 0x1 SUB DUP3 MUL SWAP2 POP DUP1 DUP5 GT PUSH2 0x1781 JUMPI SWAP1 POP JUMPDEST POP POP POP POP POP SWAP1 POP SWAP2 SWAP1 POP JUMP JUMPDEST PUSH1 0x4 DUP2 DUP2 SLOAD DUP2 LT PUSH2 0x17F0 JUMPI PUSH1 0x0 DUP1 REVERT JUMPDEST SWAP1 PUSH1 0x0 MSTORE PUSH1 0x20 PUSH1 0x0 KECCAK256 ADD PUSH1 0x0 SWAP2 POP SLOAD SWAP1 PUSH2 0x100 EXP SWAP1 DIV PUSH20 0xFFFFFFFFFFFFFFFFFFFFFFFFFFFFFFFFFFFFFFFF AND DUP2 JUMP JUMPDEST PUSH2 0x1827 PUSH2 0x1E99 JUMP JUMPDEST PUSH1 0x0 PUSH1 0x3 PUSH1 0x0 DUP4 DUP2 MSTORE PUSH1 0x20 ADD SWAP1 DUP2 MSTORE PUSH1 0x20 ADD PUSH1 0x0 KECCAK256 PUSH1 0x0 SWAP1 SLOAD SWAP1 PUSH2 0x100 EXP SWAP1 DIV PUSH1 0xE0 SHL SWAP1 POP PUSH1 0x0 PUSH1 0x8 PUSH1 0x0 DUP4 PUSH28 0xFFFFFFFFFFFFFFFFFFFFFFFFFFFFFFFFFFFFFFFFFFFFFFFFFFFFFFFF NOT AND PUSH28 0xFFFFFFFFFFFFFFFFFFFFFFFFFFFFFFFFFFFFFFFFFFFFFFFFFFFFFFFF NOT AND DUP2 MSTORE PUSH1 0x20 ADD SWAP1 DUP2 MSTORE PUSH1 0x20 ADD PUSH1 0x0 KECCAK256 SWAP1 POP PUSH1 0x0 PUSH1 0x4 DUP2 GT ISZERO PUSH2 0x18B5 JUMPI PUSH2 0x18B4 PUSH2 0x2515 JUMP JUMPDEST JUMPDEST DUP2 PUSH1 0x7 ADD PUSH1 0x0 SWAP1 SLOAD SWAP1 PUSH2 0x100 EXP SWAP1 DIV PUSH1 0xFF AND PUSH1 0x4 DUP2 GT ISZERO PUSH2 0x18D9 JUMPI PUSH2 0x18D8 PUSH2 0x2515 JUMP JUMPDEST JUMPDEST EQ PUSH2 0x192F JUMPI PUSH1 0x0 DUP2 PUSH1 0x7 ADD PUSH1 0x0 SWAP1 SLOAD SWAP1 PUSH2 0x100 EXP SWAP1 DIV PUSH1 0xFF AND PUSH1 0x40 MLOAD PUSH32 0x1E8A8FCC00000000000000000000000000000000000000000000000000000000 DUP2 MSTORE PUSH1 0x4 ADD PUSH2 0x1926 SWAP3 SWAP2 SWAP1 PUSH2 0x2750 JUMP JUMPDEST PUSH1 0x40 MLOAD DUP1 SWAP2 SUB SWAP1 REVERT JUMPDEST PUSH1 0x1 DUP2 PUSH1 0x7 ADD PUSH1 0x0 PUSH2 0x100 EXP DUP2 SLOAD DUP2 PUSH1 0xFF MUL NOT AND SWAP1 DUP4 PUSH1 0x4 DUP2 GT ISZERO PUSH2 0x1957 JUMPI PUSH2 0x1956 PUSH2 0x2515 JUMP JUMPDEST JUMPDEST MUL OR SWAP1 SSTORE POP DUP2 PUSH28 0xFFFFFFFFFFFFFFFFFFFFFFFFFFFFFFFFFFFFFFFFFFFFFFFFFFFFFFFF NOT AND PUSH32 0xE5CF44D72A8814A2030733C88EC446BDE46FB067F7719357623EDBCD901A28F4 CALLER PUSH1 0x40 MLOAD PUSH2 0x19AB SWAP2 SWAP1 PUSH2 0x22D2 JUMP JUMPDEST PUSH1 0x40 MLOAD DUP1 SWAP2 SUB SWAP1 LOG2 POP POP PUSH2 0x19BD PUSH2 0x1EDF JUMP JUMPDEST POP JUMP JUMPDEST PUSH1 0x2 SLOAD DUP2 JUMP JUMPDEST PUSH1 0x60 PUSH1 0x4 DUP1 SLOAD DUP1 PUSH1 0x20 MUL PUSH1 0x20 ADD PUSH1 0x40 MLOAD SWAP1 DUP2 ADD PUSH1 0x40 MSTORE DUP1 SWAP3 SWAP2 SWAP1 DUP2 DUP2 MSTORE PUSH1 0x20 ADD DUP3 DUP1 SLOAD DUP1 ISZERO PUSH2 0x1A4A JUMPI PUSH1 0x20 MUL DUP3 ADD SWAP2 SWAP1 PUSH1 0x0 MSTORE PUSH1 0x20 PUSH1 0x0 KECCAK256 SWAP1 JUMPDEST DUP2 PUSH1 0x0 SWAP1 SLOAD SWAP1 PUSH2 0x100 EXP SWAP1 DIV PUSH20 0xFFFFFFFFFFFFFFFFFFFFFFFFFFFFFFFFFFFFFFFF AND PUSH20 0xFFFFFFFFFFFFFFFFFFFFFFFFFFFFFFFFFFFFFFFF AND DUP2 MSTORE PUSH1 0x20 ADD SWAP1 PUSH1 0x1 ADD SWAP1 DUP1 DUP4 GT PUSH2 0x1A00 JUMPI JUMPDEST POP POP POP POP POP SWAP1 POP SWAP1 JUMP JUMPDEST PUSH2 0x1A5C PUSH2 0x203B JUMP JUMPDEST PUSH1 0x0 PUSH1 0x3 PUSH1 0x0 DUP5 DUP2 MSTORE PUSH1 0x20 ADD SWAP1 DUP2 MSTORE PUSH1 0x20 ADD PUSH1 0x0 KECCAK256 PUSH1 0x0 SWAP1 SLOAD SWAP1 PUSH2 0x100 EXP SWAP1 DIV PUSH1 0xE0 SHL SWAP1 POP PUSH1 0x0 PUSH1 0x8 PUSH1 0x0 DUP4 PUSH28 0xFFFFFFFFFFFFFFFFFFFFFFFFFFFFFFFFFFFFFFFFFFFFFFFFFFFFFFFF NOT AND PUSH28 0xFFFFFFFFFFFFFFFFFFFFFFFFFFFFFFFFFFFFFFFFFFFFFFFFFFFFFFFF NOT AND DUP2 MSTORE PUSH1 0x20 ADD SWAP1 DUP2 MSTORE PUSH1 0x20 ADD PUSH1 0x0 KECCAK256 PUSH1 0x40 MLOAD DUP1 PUSH2 0x100 ADD PUSH1 0x40 MSTORE SWAP1 DUP2 PUSH1 0x0 DUP3 ADD PUSH1 0x0 SWAP1 SLOAD SWAP1 PUSH2 0x100 EXP SWAP1 DIV PUSH1 0xE0 SHL PUSH28 0xFFFFFFFFFFFFFFFFFFFFFFFFFFFFFFFFFFFFFFFFFFFFFFFFFFFFFFFF NOT AND PUSH28 0xFFFFFFFFFFFFFFFFFFFFFFFFFFFFFFFFFFFFFFFFFFFFFFFFFFFFFFFF NOT AND DUP2 MSTORE PUSH1 0x20 ADD PUSH1 0x1 DUP3 ADD SLOAD DUP2 MSTORE PUSH1 0x20 ADD PUSH1 0x2 DUP3 ADD PUSH1 0x0 SWAP1 SLOAD SWAP1 PUSH2 0x100 EXP SWAP1 DIV PUSH20 0xFFFFFFFFFFFFFFFFFFFFFFFFFFFFFFFFFFFFFFFF AND PUSH20 0xFFFFFFFFFFFFFFFFFFFFFFFFFFFFFFFFFFFFFFFF AND PUSH20 0xFFFFFFFFFFFFFFFFFFFFFFFFFFFFFFFFFFFFFFFF AND DUP2 MSTORE PUSH1 0x20 ADD PUSH1 0x3 DUP3 ADD PUSH1 0x0 SWAP1 SLOAD SWAP1 PUSH2 0x100 EXP SWAP1 DIV PUSH20 0xFFFFFFFFFFFFFFFFFFFFFFFFFFFFFFFFFFFFFFFF AND PUSH20 0xFFFFFFFFFFFFFFFFFFFFFFFFFFFFFFFFFFFFFFFF AND PUSH20 0xFFFFFFFFFFFFFFFFFFFFFFFFFFFFFFFFFFFFFFFF AND DUP2 MSTORE PUSH1 0x20 ADD PUSH1 0x4 DUP3 ADD SLOAD DUP2 MSTORE PUSH1 0x20 ADD PUSH1 0x5 DUP3 ADD SLOAD DUP2 MSTORE PUSH1 0x20 ADD PUSH1 0x6 DUP3 ADD SLOAD DUP2 MSTORE PUSH1 0x20 ADD PUSH1 0x7 DUP3 ADD PUSH1 0x0 SWAP1 SLOAD SWAP1 PUSH2 0x100 EXP SWAP1 DIV PUSH1 0xFF AND PUSH1 0x4 DUP2 GT ISZERO PUSH2 0x1C2E JUMPI PUSH2 0x1C2D PUSH2 0x2515 JUMP JUMPDEST JUMPDEST PUSH1 0x4 DUP2 GT ISZERO PUSH2 0x1C40 JUMPI PUSH2 0x1C3F PUSH2 0x2515 JUMP JUMPDEST JUMPDEST DUP2 MSTORE POP POP SWAP1 POP DUP1 SWAP3 POP POP POP SWAP2 SWAP1 POP JUMP JUMPDEST PUSH2 0x1C58 PUSH2 0x1EE8 JUMP JUMPDEST PUSH1 0x0 PUSH1 0x2 SLOAD SWAP1 POP DUP2 PUSH1 0x2 DUP2 SWAP1 SSTORE POP PUSH32 0xD8E832F816C1CBAD9F319FC8017CA9D81476C84945DE3610A3CF813538F73751 DUP2 DUP4 PUSH1 0x40 MLOAD PUSH2 0x1C97 SWAP3 SWAP2 SWAP1 PUSH2 0x28C0 JUMP JUMPDEST PUSH1 0x40 MLOAD DUP1 SWAP2 SUB SWAP1 LOG1 POP POP JUMP JUMPDEST PUSH2 0x1CAB PUSH2 0x1EE8 JUMP JUMPDEST PUSH1 0x0 PUSH20 0xFFFFFFFFFFFFFFFFFFFFFFFFFFFFFFFFFFFFFFFF AND DUP2 PUSH20 0xFFFFFFFFFFFFFFFFFFFFFFFFFFFFFFFFFFFFFFFF AND SUB PUSH2 0x1D1D JUMPI PUSH1 0x0 PUSH1 0x40 MLOAD PUSH32 0x1E4FBDF700000000000000000000000000000000000000000000000000000000 DUP2 MSTORE PUSH1 0x4 ADD PUSH2 0x1D14 SWAP2 SWAP1 PUSH2 0x22D2 JUMP JUMPDEST PUSH1 0x40 MLOAD DUP1 SWAP2 SUB SWAP1 REVERT JUMPDEST PUSH2 0x1D26 DUP2 PUSH2 0x1F6F JUMP JUMPDEST POP JUMP JUMPDEST PUSH2 0x1D31 PUSH2 0x1EE8 JUMP JUMPDEST PUSH1 0x0 PUSH32 0x0 SWAP1 POP PUSH1 0x0 DUP2 PUSH20 0xFFFFFFFFFFFFFFFFFFFFFFFFFFFFFFFFFFFFFFFF AND PUSH4 0x70A08231 ADDRESS PUSH1 0x40 MLOAD DUP3 PUSH4 0xFFFFFFFF AND PUSH1 0xE0 SHL DUP2 MSTORE PUSH1 0x4 ADD PUSH2 0x1D91 SWAP2 SWAP1 PUSH2 0x22D2 JUMP JUMPDEST PUSH1 0x20 PUSH1 0x40 MLOAD DUP1 DUP4 SUB DUP2 DUP7 GAS STATICCALL ISZERO DUP1 ISZERO PUSH2 0x1DAE JUMPI RETURNDATASIZE PUSH1 0x0 DUP1 RETURNDATACOPY RETURNDATASIZE PUSH1 0x0 REVERT JUMPDEST POP POP POP POP PUSH1 0x40 MLOAD RETURNDATASIZE PUSH1 0x1F NOT PUSH1 0x1F DUP3 ADD AND DUP3 ADD DUP1 PUSH1 0x40 MSTORE POP DUP2 ADD SWAP1 PUSH2 0x1DD2 SWAP2 SWAP1 PUSH2 0x2893 JUMP JUMPDEST SWAP1 POP PUSH1 0x0 DUP3 PUSH20 0xFFFFFFFFFFFFFFFFFFFFFFFFFFFFFFFFFFFFFFFF AND PUSH4 0xA9059CBB PUSH2 0x1DFA PUSH2 0x136A JUMP JUMPDEST DUP5 PUSH1 0x40 MLOAD DUP4 PUSH4 0xFFFFFFFF AND PUSH1 0xE0 SHL DUP2 MSTORE PUSH1 0x4 ADD PUSH2 0x1E18 SWAP3 SWAP2 SWAP1 PUSH2 0x28E9 JUMP JUMPDEST PUSH1 0x20 PUSH1 0x40 MLOAD DUP1 DUP4 SUB DUP2 PUSH1 0x0 DUP8 GAS CALL ISZERO DUP1 ISZERO PUSH2 0x1E37 JUMPI RETURNDATASIZE PUSH1 0x0 DUP1 RETURNDATACOPY RETURNDATASIZE PUSH1 0x0 REVERT JUMPDEST POP POP POP POP PUSH1 0x40 MLOAD RETURNDATASIZE PUSH1 0x1F NOT PUSH1 0x1F DUP3 ADD AND DUP3 ADD DUP1 PUSH1 0x40 MSTORE POP DUP2 ADD SWAP1 PUSH2 0x1E5B SWAP2 SWAP1 PUSH2 0x294A JUMP JUMPDEST SWAP1 POP DUP1 PUSH2 0x1E94 JUMPI PUSH1 0x40 MLOAD PUSH32 0xF9310F900000000000000000000000000000000000000000000000000000000 DUP2 MSTORE PUSH1 0x4 ADD PUSH1 0x40 MLOAD DUP1 SWAP2 SUB SWAP1 REVERT JUMPDEST POP POP POP JUMP JUMPDEST PUSH1 0x2 PUSH1 0x1 SLOAD SUB PUSH2 0x1ED5 JUMPI PUSH1 0x40 MLOAD PUSH32 0x3EE5AEB500000000000000000000000000000000000000000000000000000000 DUP2 MSTORE PUSH1 0x4 ADD PUSH1 0x40 MLOAD DUP1 SWAP2 SUB SWAP1 REVERT JUMPDEST PUSH1 0x2 PUSH1 0x1 DUP2 SWAP1 SSTORE POP JUMP JUMPDEST PUSH1 0x1 DUP1 DUP2 SWAP1 SSTORE POP JUMP JUMPDEST PUSH2 0x1EF0 PUSH2 0x2033 JUMP JUMPDEST PUSH20 0xFFFFFFFFFFFFFFFFFFFFFFFFFFFFFFFFFFFFFFFF AND PUSH2 0x1F0E PUSH2 0x136A JUMP JUMPDEST PUSH20 0xFFFFFFFFFFFFFFFFFFFFFFFFFFFFFFFFFFFFFFFF AND EQ PUSH2 0x1F6D JUMPI PUSH2 0x1F31 PUSH2 0x2033 JUMP JUMPDEST PUSH1 0x40 MLOAD PUSH32 0x118CDAA700000000000000000000000000000000000000000000000000000000 DUP2 MSTORE PUSH1 0x4 ADD PUSH2 0x1F64 SWAP2 SWAP1 PUSH2 0x22D2 JUMP JUMPDEST PUSH1 0x40 MLOAD DUP1 SWAP2 SUB SWAP1 REVERT JUMPDEST JUMP JUMPDEST PUSH1 0x0 DUP1 PUSH1 0x0 SWAP1 SLOAD SWAP1 PUSH2 0x100 EXP SWAP1 DIV PUSH20 0xFFFFFFFFFFFFFFFFFFFFFFFFFFFFFFFFFFFFFFFF AND SWAP1 POP DUP2 PUSH1 0x0 DUP1 PUSH2 0x100 EXP DUP2 SLOAD DUP2 PUSH20 0xFFFFFFFFFFFFFFFFFFFFFFFFFFFFFFFFFFFFFFFF MUL NOT AND SWAP1 DUP4 PUSH20 0xFFFFFFFFFFFFFFFFFFFFFFFFFFFFFFFFFFFFFFFF AND MUL OR SWAP1 SSTORE POP DUP2 PUSH20 0xFFFFFFFFFFFFFFFFFFFFFFFFFFFFFFFFFFFFFFFF AND DUP2 PUSH20 0xFFFFFFFFFFFFFFFFFFFFFFFFFFFFFFFFFFFFFFFF AND PUSH32 0x8BE0079C531659141344CD1FD0A4F28419497F9722A3DAAFE3B4186F6B6457E0 PUSH1 0x40 MLOAD PUSH1 0x40 MLOAD DUP1 SWAP2 SUB SWAP1 LOG3 POP POP JUMP JUMPDEST PUSH1 0x0 CALLER SWAP1 POP SWAP1 JUMP JUMPDEST PUSH1 0x40 MLOAD DUP1 PUSH2 0x100 ADD PUSH1 0x40 MSTORE DUP1 PUSH1 0x0 PUSH28 0xFFFFFFFFFFFFFFFFFFFFFFFFFFFFFFFFFFFFFFFFFFFFFFFFFFFFFFFF NOT AND DUP2 MSTORE PUSH1 0x20 ADD PUSH1 0x0 DUP2 MSTORE PUSH1 0x20 ADD PUSH1 0x0 PUSH20 0xFFFFFFFFFFFFFFFFFFFFFFFFFFFFFFFFFFFFFFFF AND DUP2 MSTORE PUSH1 0x20 ADD PUSH1 0x0 PUSH20 0xFFFFFFFFFFFFFFFFFFFFFFFFFFFFFFFFFFFFFFFF AND DUP2 MSTORE PUSH1 0x20 ADD PUSH1 0x0 DUP2 MSTORE PUSH1 0x20 ADD PUSH1 0x0 DUP2 MSTORE PUSH1 0x20 ADD PUSH1 0x0 DUP2 MSTORE PUSH1 0x20 ADD PUSH1 0x0 PUSH1 0x4 DUP2 GT ISZERO PUSH2 0x20D7 JUMPI PUSH2 0x20D6 PUSH2 0x2515 JUMP JUMPDEST JUMPDEST DUP2 MSTORE POP SWAP1 JUMP JUMPDEST PUSH1 0x0 DUP1 REVERT JUMPDEST PUSH1 0x0 PUSH20 0xFFFFFFFFFFFFFFFFFFFFFFFFFFFFFFFFFFFFFFFF DUP3 AND SWAP1 POP SWAP2 SWAP1 POP JUMP JUMPDEST PUSH1 0x0 PUSH2 0x210D DUP3 PUSH2 0x20E2 JUMP JUMPDEST SWAP1 POP SWAP2 SWAP1 POP JUMP JUMPDEST PUSH2 0x211D DUP2 PUSH2 0x2102 JUMP JUMPDEST DUP2 EQ PUSH2 0x2128 JUMPI PUSH1 0x0 DUP1 REVERT JUMPDEST POP JUMP JUMPDEST PUSH1 0x0 DUP2 CALLDATALOAD SWAP1 POP PUSH2 0x213A DUP2 PUSH2 0x2114 JUMP JUMPDEST SWAP3 SWAP2 POP POP JUMP JUMPDEST PUSH1 0x0 DUP2 SWAP1 POP SWAP2 SWAP1 POP JUMP JUMPDEST PUSH2 0x2153 DUP2 PUSH2 0x2140 JUMP JUMPDEST DUP2 EQ PUSH2 0x215E JUMPI PUSH1 0x0 DUP1 REVERT JUMPDEST POP JUMP JUMPDEST PUSH1 0x0 DUP2 CALLDATALOAD SWAP1 POP PUSH2 0x2170 DUP2 PUSH2 0x214A JUMP JUMPDEST SWAP3 SWAP2 POP POP JUMP JUMPDEST PUSH1 0x0 DUP1 PUSH1 0x0 DUP1 PUSH1 0x0 PUSH1 0xA0 DUP7 DUP9 SUB SLT ISZERO PUSH2 0x2192 JUMPI PUSH2 0x2191 PUSH2 0x20DD JUMP JUMPDEST JUMPDEST PUSH1 0x0 PUSH2 0x21A0 DUP9 DUP3 DUP10 ADD PUSH2 0x212B JUMP JUMPDEST SWAP6 POP POP PUSH1 0x20 PUSH2 0x21B1 DUP9 DUP3 DUP10 ADD PUSH2 0x2161 JUMP JUMPDEST SWAP5 POP POP PUSH1 0x40 PUSH2 0x21C2 DUP9 DUP3 DUP10 ADD PUSH2 0x2161 JUMP JUMPDEST SWAP4 POP POP PUSH1 0x60 PUSH2 0x21D3 DUP9 DUP3 DUP10 ADD PUSH2 0x2161 JUMP JUMPDEST SWAP3 POP POP PUSH1 0x80 PUSH2 0x21E4 DUP9 DUP3 DUP10 ADD PUSH2 0x2161 JUMP JUMPDEST SWAP2 POP POP SWAP3 SWAP6 POP SWAP3 SWAP6 SWAP1 SWAP4 POP JUMP JUMPDEST PUSH1 0x0 PUSH1 0x20 DUP3 DUP5 SUB SLT ISZERO PUSH2 0x2207 JUMPI PUSH2 0x2206 PUSH2 0x20DD JUMP JUMPDEST JUMPDEST PUSH1 0x0 PUSH2 0x2215 DUP5 DUP3 DUP6 ADD PUSH2 0x2161 JUMP JUMPDEST SWAP2 POP POP SWAP3 SWAP2 POP POP JUMP JUMPDEST PUSH2 0x2227 DUP2 PUSH2 0x2140 JUMP JUMPDEST DUP3 MSTORE POP POP JUMP JUMPDEST PUSH1 0x0 PUSH1 0x20 DUP3 ADD SWAP1 POP PUSH2 0x2242 PUSH1 0x0 DUP4 ADD DUP5 PUSH2 0x221E JUMP JUMPDEST SWAP3 SWAP2 POP POP JUMP JUMPDEST PUSH1 0x0 DUP1 PUSH1 0x0 DUP1 PUSH1 0x0 PUSH1 0xA0 DUP7 DUP9 SUB SLT ISZERO PUSH2 0x2264 JUMPI PUSH2 0x2263 PUSH2 0x20DD JUMP JUMPDEST JUMPDEST PUSH1 0x0 PUSH2 0x2272 DUP9 DUP3 DUP10 ADD PUSH2 0x2161 JUMP JUMPDEST SWAP6 POP POP PUSH1 0x20 PUSH2 0x2283 DUP9 DUP3 DUP10 ADD PUSH2 0x212B JUMP JUMPDEST SWAP5 POP POP PUSH1 0x40 PUSH2 0x2294 DUP9 DUP3 DUP10 ADD PUSH2 0x2161 JUMP JUMPDEST SWAP4 POP POP PUSH1 0x60 PUSH2 0x22A5 DUP9 DUP3 DUP10 ADD PUSH2 0x2161 JUMP JUMPDEST SWAP3 POP POP PUSH1 0x80 PUSH2 0x22B6 DUP9 DUP3 DUP10 ADD PUSH2 0x2161 JUMP JUMPDEST SWAP2 POP POP SWAP3 SWAP6 POP SWAP3 SWAP6 SWAP1 SWAP4 POP JUMP JUMPDEST PUSH2 0x22CC DUP2 PUSH2 0x2102 JUMP JUMPDEST DUP3 MSTORE POP POP JUMP JUMPDEST PUSH1 0x0 PUSH1 0x20 DUP3 ADD SWAP1 POP PUSH2 0x22E7 PUSH1 0x0 DUP4 ADD DUP5 PUSH2 0x22C3 JUMP JUMPDEST SWAP3 SWAP2 POP POP JUMP JUMPDEST PUSH1 0x0 DUP2 MLOAD SWAP1 POP SWAP2 SWAP1 POP JUMP JUMPDEST PUSH1 0x0 DUP3 DUP3 MSTORE PUSH1 0x20 DUP3 ADD SWAP1 POP SWAP3 SWAP2 POP POP JUMP JUMPDEST PUSH1 0x0 DUP2 SWAP1 POP PUSH1 0x20 DUP3 ADD SWAP1 POP SWAP2 SWAP1 POP JUMP JUMPDEST PUSH1 0x0 PUSH32 0xFFFFFFFF00000000000000000000000000000000000000000000000000000000 DUP3 AND SWAP1 POP SWAP2 SWAP1 POP JUMP JUMPDEST PUSH2 0x234E DUP2 PUSH2 0x2319 JUMP JUMPDEST DUP3 MSTORE POP POP JUMP JUMPDEST PUSH1 0x0 PUSH2 0x2360 DUP4 DUP4 PUSH2 0x2345 JUMP JUMPDEST PUSH1 0x20 DUP4 ADD SWAP1 POP SWAP3 SWAP2 POP POP JUMP JUMPDEST PUSH1 0x0 PUSH1 0x20 DUP3 ADD SWAP1 POP SWAP2 SWAP1 POP JUMP JUMPDEST PUSH1 0x0 PUSH2 0x2384 DUP3 PUSH2 0x22ED JUMP JUMPDEST PUSH2 0x238E DUP2 DUP6 PUSH2 0x22F8 JUMP JUMPDEST SWAP4 POP PUSH2 0x2399 DUP4 PUSH2 0x2309 JUMP JUMPDEST DUP1 PUSH1 0x0 JUMPDEST DUP4 DUP2 LT ISZERO PUSH2 0x23CA JUMPI DUP2 MLOAD PUSH2 0x23B1 DUP9 DUP3 PUSH2 0x2354 JUMP JUMPDEST SWAP8 POP PUSH2 0x23BC DUP4 PUSH2 0x236C JUMP JUMPDEST SWAP3 POP POP PUSH1 0x1 DUP2 ADD SWAP1 POP PUSH2 0x239D JUMP JUMPDEST POP DUP6 SWAP4 POP POP POP POP SWAP3 SWAP2 POP POP JUMP JUMPDEST PUSH1 0x0 PUSH1 0x20 DUP3 ADD SWAP1 POP DUP2 DUP2 SUB PUSH1 0x0 DUP4 ADD MSTORE PUSH2 0x23F1 DUP2 DUP5 PUSH2 0x2379 JUMP JUMPDEST SWAP1 POP SWAP3 SWAP2 POP POP JUMP JUMPDEST PUSH1 0x0 PUSH1 0x20 DUP3 DUP5 SUB SLT ISZERO PUSH2 0x240F JUMPI PUSH2 0x240E PUSH2 0x20DD JUMP JUMPDEST JUMPDEST PUSH1 0x0 PUSH2 0x241D DUP5 DUP3 DUP6 ADD PUSH2 0x212B JUMP JUMPDEST SWAP2 POP POP SWAP3 SWAP2 POP POP JUMP JUMPDEST PUSH1 0x0 DUP2 MLOAD SWAP1 POP SWAP2 SWAP1 POP JUMP JUMPDEST PUSH1 0x0 DUP3 DUP3 MSTORE PUSH1 0x20 DUP3 ADD SWAP1 POP SWAP3 SWAP2 POP POP JUMP JUMPDEST PUSH1 0x0 DUP2 SWAP1 POP PUSH1 0x20 DUP3 ADD SWAP1 POP SWAP2 SWAP1 POP JUMP JUMPDEST PUSH2 0x245B DUP2 PUSH2 0x2102 JUMP JUMPDEST DUP3 MSTORE POP POP JUMP JUMPDEST PUSH1 0x0 PUSH2 0x246D DUP4 DUP4 PUSH2 0x2452 JUMP JUMPDEST PUSH1 0x20 DUP4 ADD SWAP1 POP SWAP3 SWAP2 POP POP JUMP JUMPDEST PUSH1 0x0 PUSH1 0x20 DUP3 ADD SWAP1 POP SWAP2 SWAP1 POP JUMP JUMPDEST PUSH1 0x0 PUSH2 0x2491 DUP3 PUSH2 0x2426 JUMP JUMPDEST PUSH2 0x249B DUP2 DUP6 PUSH2 0x2431 JUMP JUMPDEST SWAP4 POP PUSH2 0x24A6 DUP4 PUSH2 0x2442 JUMP JUMPDEST DUP1 PUSH1 0x0 JUMPDEST DUP4 DUP2 LT ISZERO PUSH2 0x24D7 JUMPI DUP2 MLOAD PUSH2 0x24BE DUP9 DUP3 PUSH2 0x2461 JUMP JUMPDEST SWAP8 POP PUSH2 0x24C9 DUP4 PUSH2 0x2479 JUMP JUMPDEST SWAP3 POP POP PUSH1 0x1 DUP2 ADD SWAP1 POP PUSH2 0x24AA JUMP JUMPDEST POP DUP6 SWAP4 POP POP POP POP SWAP3 SWAP2 POP POP JUMP JUMPDEST PUSH1 0x0 PUSH1 0x20 DUP3 ADD SWAP1 POP DUP2 DUP2 SUB PUSH1 0x0 DUP4 ADD MSTORE PUSH2 0x24FE DUP2 DUP5 PUSH2 0x2486 JUMP JUMPDEST SWAP1 POP SWAP3 SWAP2 POP POP JUMP JUMPDEST PUSH2 0x250F DUP2 PUSH2 0x2140 JUMP JUMPDEST DUP3 MSTORE POP POP JUMP JUMPDEST PUSH32 0x4E487B7100000000000000000000000000000000000000000000000000000000 PUSH1 0x0 MSTORE PUSH1 0x21 PUSH1 0x4 MSTORE PUSH1 0x24 PUSH1 0x0 REVERT JUMPDEST PUSH1 0x5 DUP2 LT PUSH2 0x2555 JUMPI PUSH2 0x2554 PUSH2 0x2515 JUMP JUMPDEST JUMPDEST POP JUMP JUMPDEST PUSH1 0x0 DUP2 SWAP1 POP PUSH2 0x2566 DUP3 PUSH2 0x2544 JUMP JUMPDEST SWAP2 SWAP1 POP JUMP JUMPDEST PUSH1 0x0 PUSH2 0x2576 DUP3 PUSH2 0x2558 JUMP JUMPDEST SWAP1 POP SWAP2 SWAP1 POP JUMP JUMPDEST PUSH2 0x2586 DUP2 PUSH2 0x256B JUMP JUMPDEST DUP3 MSTORE POP POP JUMP JUMPDEST PUSH2 0x100 DUP3 ADD PUSH1 0x0 DUP3 ADD MLOAD PUSH2 0x25A3 PUSH1 0x0 DUP6 ADD DUP3 PUSH2 0x2345 JUMP JUMPDEST POP PUSH1 0x20 DUP3 ADD MLOAD PUSH2 0x25B6 PUSH1 0x20 DUP6 ADD DUP3 PUSH2 0x2506 JUMP JUMPDEST POP PUSH1 0x40 DUP3 ADD MLOAD PUSH2 0x25C9 PUSH1 0x40 DUP6 ADD DUP3 PUSH2 0x2452 JUMP JUMPDEST POP PUSH1 0x60 DUP3 ADD MLOAD PUSH2 0x25DC PUSH1 0x60 DUP6 ADD DUP3 PUSH2 0x2452 JUMP JUMPDEST POP PUSH1 0x80 DUP3 ADD MLOAD PUSH2 0x25EF PUSH1 0x80 DUP6 ADD DUP3 PUSH2 0x2506 JUMP JUMPDEST POP PUSH1 0xA0 DUP3 ADD MLOAD PUSH2 0x2602 PUSH1 0xA0 DUP6 ADD DUP3 PUSH2 0x2506 JUMP JUMPDEST POP PUSH1 0xC0 DUP3 ADD MLOAD PUSH2 0x2615 PUSH1 0xC0 DUP6 ADD DUP3 PUSH2 0x2506 JUMP JUMPDEST POP PUSH1 0xE0 DUP3 ADD MLOAD PUSH2 0x2628 PUSH1 0xE0 DUP6 ADD DUP3 PUSH2 0x257D JUMP JUMPDEST POP POP POP POP JUMP JUMPDEST PUSH1 0x0 PUSH2 0x100 DUP3 ADD SWAP1 POP PUSH2 0x2644 PUSH1 0x0 DUP4 ADD DUP5 PUSH2 0x258C JUMP JUMPDEST SWAP3 SWAP2 POP POP JUMP JUMPDEST PUSH1 0x0 DUP2 PUSH1 0x60 SHL SWAP1 POP SWAP2 SWAP1 POP JUMP JUMPDEST PUSH1 0x0 PUSH2 0x2662 DUP3 PUSH2 0x264A JUMP JUMPDEST SWAP1 POP SWAP2 SWAP1 POP JUMP JUMPDEST PUSH1 0x0 PUSH2 0x2674 DUP3 PUSH2 0x2657 JUMP JUMPDEST SWAP1 POP SWAP2 SWAP1 POP JUMP JUMPDEST PUSH2 0x268C PUSH2 0x2687 DUP3 PUSH2 0x2102 JUMP JUMPDEST PUSH2 0x2669 JUMP JUMPDEST DUP3 MSTORE POP POP JUMP JUMPDEST PUSH1 0x0 DUP2 SWAP1 POP SWAP3 SWAP2 POP POP JUMP JUMPDEST PUSH32 0x4352454154455F43414D504149474E0000000000000000000000000000000000 PUSH1 0x0 DUP3 ADD MSTORE POP JUMP JUMPDEST PUSH1 0x0 PUSH2 0x26D3 PUSH1 0xF DUP4 PUSH2 0x2692 JUMP JUMPDEST SWAP2 POP PUSH2 0x26DE DUP3 PUSH2 0x269D JUMP JUMPDEST PUSH1 0xF DUP3 ADD SWAP1 POP SWAP2 SWAP1 POP JUMP JUMPDEST PUSH1 0x0 DUP2 SWAP1 POP SWAP2 SWAP1 POP JUMP JUMPDEST PUSH2 0x2704 PUSH2 0x26FF DUP3 PUSH2 0x2140 JUMP JUMPDEST PUSH2 0x26E9 JUMP JUMPDEST DUP3 MSTORE POP POP JUMP JUMPDEST PUSH1 0x0 PUSH2 0x2716 DUP3 DUP6 PUSH2 0x267B JUMP JUMPDEST PUSH1 0x14 DUP3 ADD SWAP2 POP PUSH2 0x2725 DUP3 PUSH2 0x26C6 JUMP JUMPDEST SWAP2 POP PUSH2 0x2731 DUP3 DUP5 PUSH2 0x26F3 JUMP JUMPDEST PUSH1 0x20 DUP3 ADD SWAP2 POP DUP2 SWAP1 POP SWAP4 SWAP3 POP POP POP JUMP JUMPDEST PUSH2 0x274A DUP2 PUSH2 0x256B JUMP JUMPDEST DUP3 MSTORE POP POP JUMP JUMPDEST PUSH1 0x0 PUSH1 0x40 DUP3 ADD SWAP1 POP PUSH2 0x2765 PUSH1 0x0 DUP4 ADD DUP6 PUSH2 0x2741 JUMP JUMPDEST PUSH2 0x2772 PUSH1 0x20 DUP4 ADD DUP5 PUSH2 0x2741 JUMP JUMPDEST SWAP4 SWAP3 POP POP POP JUMP JUMPDEST PUSH32 0x4E487B7100000000000000000000000000000000000000000000000000000000 PUSH1 0x0 MSTORE PUSH1 0x11 PUSH1 0x4 MSTORE PUSH1 0x24 PUSH1 0x0 REVERT JUMPDEST PUSH1 0x0 PUSH2 0x27B3 DUP3 PUSH2 0x2140 JUMP JUMPDEST SWAP2 POP PUSH2 0x27BE DUP4 PUSH2 0x2140 JUMP JUMPDEST SWAP3 POP DUP3 DUP3 MUL PUSH2 0x27CC DUP2 PUSH2 0x2140 JUMP JUMPDEST SWAP2 POP DUP3 DUP3 DIV DUP5 EQ DUP4 ISZERO OR PUSH2 0x27E3 JUMPI PUSH2 0x27E2 PUSH2 0x2779 JUMP JUMPDEST JUMPDEST POP SWAP3 SWAP2 POP POP JUMP JUMPDEST PUSH32 0x4E487B7100000000000000000000000000000000000000000000000000000000 PUSH1 0x0 MSTORE PUSH1 0x12 PUSH1 0x4 MSTORE PUSH1 0x24 PUSH1 0x0 REVERT JUMPDEST PUSH1 0x0 PUSH2 0x2824 DUP3 PUSH2 0x2140 JUMP JUMPDEST SWAP2 POP PUSH2 0x282F DUP4 PUSH2 0x2140 JUMP JUMPDEST SWAP3 POP DUP3 PUSH2 0x283F JUMPI PUSH2 0x283E PUSH2 0x27EA JUMP JUMPDEST JUMPDEST DUP3 DUP3 DIV SWAP1 POP SWAP3 SWAP2 POP POP JUMP JUMPDEST PUSH1 0x0 PUSH2 0x2855 DUP3 PUSH2 0x2140 JUMP JUMPDEST SWAP2 POP PUSH2 0x2860 DUP4 PUSH2 0x2140 JUMP JUMPDEST SWAP3 POP DUP3 DUP3 SUB SWAP1 POP DUP2 DUP2 GT ISZERO PUSH2 0x2878 JUMPI PUSH2 0x2877 PUSH2 0x2779 JUMP JUMPDEST JUMPDEST SWAP3 SWAP2 POP POP JUMP JUMPDEST PUSH1 0x0 DUP2 MLOAD SWAP1 POP PUSH2 0x288D DUP2 PUSH2 0x214A JUMP JUMPDEST SWAP3 SWAP2 POP POP JUMP JUMPDEST PUSH1 0x0 PUSH1 0x20 DUP3 DUP5 SUB SLT ISZERO PUSH2 0x28A9 JUMPI PUSH2 0x28A8 PUSH2 0x20DD JUMP JUMPDEST JUMPDEST PUSH1 0x0 PUSH2 0x28B7 DUP5 DUP3 DUP6 ADD PUSH2 0x287E JUMP JUMPDEST SWAP2 POP POP SWAP3 SWAP2 POP POP JUMP JUMPDEST PUSH1 0x0 PUSH1 0x40 DUP3 ADD SWAP1 POP PUSH2 0x28D5 PUSH1 0x0 DUP4 ADD DUP6 PUSH2 0x221E JUMP JUMPDEST PUSH2 0x28E2 PUSH1 0x20 DUP4 ADD DUP5 PUSH2 0x221E JUMP JUMPDEST SWAP4 SWAP3 POP POP POP JUMP JUMPDEST PUSH1 0x0 PUSH1 0x40 DUP3 ADD SWAP1 POP PUSH2 0x28FE PUSH1 0x0 DUP4 ADD DUP6 PUSH2 0x22C3 JUMP JUMPDEST PUSH2 0x290B PUSH1 0x20 DUP4 ADD DUP5 PUSH2 0x221E JUMP JUMPDEST SWAP4 SWAP3 POP POP POP JUMP JUMPDEST PUSH1 0x0 DUP2 ISZERO ISZERO SWAP1 POP SWAP2 SWAP1 POP JUMP JUMPDEST PUSH2 0x2927 DUP2 PUSH2 0x2912 JUMP JUMPDEST DUP2 EQ PUSH2 0x2932 JUMPI PUSH1 0x0 DUP1 REVERT JUMPDEST POP JUMP JUMPDEST PUSH1 0x0 DUP2 MLOAD SWAP1 POP PUSH2 0x2944 DUP2 PUSH2 0x291E JUMP JUMPDEST SWAP3 SWAP2 POP POP JUMP JUMPDEST PUSH1 0x0 PUSH1 0x20 DUP3 DUP5 SUB SLT ISZERO PUSH2 0x2960 JUMPI PUSH2 0x295F PUSH2 0x20DD JUMP JUMPDEST JUMPDEST PUSH1 0x0 PUSH2 0x296E DUP5 DUP3 DUP6 ADD PUSH2 0x2935 JUMP JUMPDEST SWAP2 POP POP SWAP3 SWAP2 POP POP JUMP JUMPDEST PUSH2 0x2980 DUP2 PUSH2 0x2319 JUMP JUMPDEST DUP3 MSTORE POP POP JUMP JUMPDEST PUSH1 0x0 PUSH1 0x20 DUP3 ADD SWAP1 POP PUSH2 0x299B PUSH1 0x0 DUP4 ADD DUP5 PUSH2 0x2977 JUMP JUMPDEST SWAP3 SWAP2 POP POP JUMP JUMPDEST PUSH1 0x0 DUP3 DUP3 MSTORE PUSH1 0x20 DUP3 ADD SWAP1 POP SWAP3 SWAP2 POP POP JUMP JUMPDEST PUSH32 0x496E76616C6964204B4F4C206164647265737300000000000000000000000000 PUSH1 0x0 DUP3 ADD MSTORE POP JUMP JUMPDEST PUSH1 0x0 PUSH2 0x29E8 PUSH1 0x13 DUP4 PUSH2 0x29A1 JUMP JUMPDEST SWAP2 POP PUSH2 0x29F3 DUP3 PUSH2 0x29B2 JUMP JUMPDEST PUSH1 0x20 DUP3 ADD SWAP1 POP SWAP2 SWAP1 POP JUMP JUMPDEST PUSH1 0x0 PUSH1 0x20 DUP3 ADD SWAP1 POP DUP2 DUP2 SUB PUSH1 0x0 DUP4 ADD MSTORE PUSH2 0x2A17 DUP2 PUSH2 0x29DB JUMP JUMPDEST SWAP1 POP SWAP2 SWAP1 POP JUMP INVALID LOG2 PUSH5 0x6970667358 0x22 SLT KECCAK256 PUSH13 0xA589B3883DB2700CDEDCE66528 PUSH9 0x32D748900BDFE95260 PUSH26 0xFD7479BC95FF4364736F6C634300081A00330000000000000000 "
        },
        "methodIdentifiers": {
          "acceptProjectCampaign(uint256)": "ab47addf",
          "allUsers(uint256)": "a2bdedf4",
          "baseUsdcAddress()": "69f5352b",
          "baseUsdcDecimals()": "78e4f37c",
          "createNewCampaign(address,uint256,uint256,uint256,uint256)": "0b03e44a",
          "discardCampaign(uint256)": "961562f1",
          "divider()": "378efa37",
          "fulfilProjectCampaign(uint256)": "1d298944",
          "getAllCampaigns()": "86cdf604",
          "getAllUsers()": "e2842d79",
          "getCampaignInfo(uint256)": "e38e2b82",
          "getUserCampaigns(address)": "a1e5084c",
          "owner()": "8da5cb5b",
          "platformFeesPercentage()": "b37df594",
          "register()": "1aa3a008",
          "renounceOwnership()": "715018a6",
          "transferOwnership(address)": "f2fde38b",
          "updateCampaign(uint256,address,uint256,uint256,uint256)": "622527b7",
          "updatePlatformFees(uint256)": "e8136a51",
          "withdrawUsdc()": "fee84d4e"
        }
      }
    }
  }
}